:020000040800F2
:10000000D8D40020DD03000815980008C383000839
:10001000C1960008B32A00085DC80008000000006F
:100020000000000000000000000000001D030008A8
:100030004B400008000000007903000861BB000885
:10004000F7030008F7030008F7030008F7030008A8
:10005000F7030008F70300084D400008F703000805
:10006000F70300085340000859400008F703000850
:10007000F7030008F7030008F7030008F703000878
:10008000F7030008F7030008F7030008F703000868
:10009000B52A0008F7030008F70300085F400008CE
:1000A000F7030008F7030008F7030008F703000848
:1000B000F7030008F7030008F7030008F703000838
:1000C000F7030008F7030008F7030008F703000828
:1000D000F7030008BDC60008F7030008C9C60008FA
:1000E000F7030008F7030008F7030008F703000808
:1000F000F7030008F7030008F7030008513A000867
:10010000F7030008F7030008F7030008F7030008E7
:10011000F7030008F7030008F7030008F7030008D7
:10012000F7030008A93A0008B53A0008F7030008E9
:10013000F7030008F7030008F7030008F7030008B7
:10014000C12A0008F7030008F7030008F7030008B6
:10015000F7030008813F00088D3F000899C7000899
:10016000F7030008F7030008F7030008F703000887
:10017000F7030008F7030008F70300080000000079
:10018000F7030008F703000800F002F800F0B6F8E3
:100190000AA090E8000C82448344AAF10107DA45E2
:1001A00001D100F0ABF8AFF2090EBAE80F0013F07E
:1001B000010F18BFFB1A43F001031847A86801009C
:1001C000C868010010F8013B0A4413F0030408BF9B
:1001D00010F8014B1D1108BF10F8015B641E05D01B
:1001E00010F8016B641E01F8016BF9D1002D15D0D8
:1001F00010F8014B03F00C030C2BA1EB04040ABF15
:1002000010F8013BA4EB8314A4EB032405F10103D4
:1002100014F8016B5B1E01F8016BF9D5914238BFF0
:1002200010F8013BD1D3704700230024002500269D
:10023000103A28BF78C1FBD8520728BF30C148BF49
:100240000B6070476E2900F0A183702900F0E384F1
:10025000662914F05F85652914F05C85672914F020
:100260005985612914F0588503681B0A28BF41F09D
:100270008001692900F04E83642900F04B837529C1
:1002800000F048836F2900F07084782900F0AF8473
:10029000E92900F00B84E42900F00884F52900F036
:1002A0000584EF2900F06D84F82900F0AE8403681E
:1002B000DB0928BF41F08001632901F0D181732956
:1002C00001F0D681E32901F0E181F32901F0E68113
:1002D000002070471FB514F065FC01F031FA0400EE
:1002E0000020002113F05EF8401C60600020002117
:1002F00013F042F8E0601FBD10B510BD01F0F3F936
:100300001146FFF7E7FF10F002FD01F0CFFA03B44A
:10031000FFF7F2FF03BC01F0DFFA00002C4B196875
:100320000868B0E8F04F80F30988BFF36F8F4FF093
:10033000000080F311887047000000000848006842
:10034000006880F308884FF0000080F3148862B6DC
:1003500061B6BFF34F8FBFF36F8F00DF00BF00BFE9
:1003600008ED00E0DFF80C00016841F47001016065
:10037000704700BF88ED00E0EFF30980BFF36F8F97
:10038000134B1A681EF0100F08BF20ED108A20E9E9
:10039000F04F106009B44FF0500080F31188BFF3A4
:1003A0004F8FBFF36F8F12F0D7F94FF0000080F33B
:1003B000118809BC19680868B0E8F04F1EF0100FEA
:1003C00008BFB0EC108A80F30988BFF36F8F7047C5
:1003D00048070020EFF30580704700000948804778
:1003E00009480047FEE7FEE7FEE7FEE7FEE7FEE717
:1003F000FEE7FEE7FEE7FEE704480549054A064B2F
:10040000704700000DBC000889010008D894002046
:10041000D8D40020D8B40020D8B400209FED1A1AF8
:10042000F5EE000A40EE010ABDEEE00AF5EEC00A64
:1004300010EE100AF1EE10FA38BF401E00EE100A5E
:100440001349F7EE001AB8EEC00A30EEC00ADFED2D
:100450000F0A20EE200AFCEEC00A10EE900AC0F34C
:10046000080000EE900A01EB8000F8EE600A90EDC3
:10047000011A70EE600A90ED000A71EEE01A21EEAA
:10048000800A00EE810A704783F9223E0000004492
:100490003C5F0108DFED190AB5EEC00A60EE200AE4
:1004A000BDEEE01A11EE100AF1EE10FA38BF401E50
:1004B00000EE100A1349F7EE001AB8EEC00A30EE4B
:1004C000C00ADFED0F0A60EE200ABCEEE00A10EE73
:1004D000100AC0F3080000EE100A01EB8000B8EE2D
:1004E000400A90ED011A70EEC00A90ED000A71EE1C
:1004F000E01A21EE800A00EE810A704783F9223E5D
:10050000000000443C5F010853EA020C00F06980DF
:100510002DE9F04B4FF00006002B1FBFB3FA83F517
:1005200003FA05F424FA05F65E4012BF1643B2FA48
:1005300082F502FA05F4C5F120051EBF22FA05FC7A
:1005400044EA0C04203556EA044C4FEA144418BF20
:10055000641C4FF000084FF00009904271EB030C4F
:1005600039D3002919BFB1FA81F701FA07F6B0FAB9
:1005700080F700FA07F6C7F120071EBF20FA07FC34
:1005800046EA0C062037B6FBF4FCA7EB0507103F44
:1005900007F01F0BCBF120060CFA0BFB2CFA06F62A
:1005A00044BFB3460026202FA4BF5E464FF0000B89
:1005B0005BEA060C08BF4FF0010B19EB0B09ABFB14
:1005C000027C48EB0608C01B06FB02CC0BFB03CCED
:1005D00071EB0C01C1E70B46024641464846BDE8B7
:1005E000F08B13B54FF000004FF00001AFF3008027
:1005F000BDE81C40704700001CB50C46064B7B4410
:1006000069460090204600F0DAF904460020694669
:1006100000F0E8F920461CBDE303000040EA0103B6
:10062000024630B59B0710D14FF0013400E008C2FC
:1006300008C91D1B9D4315EAC41FF8D013F0FF0124
:1006400002F8011B0DD01B0AF8E711F8013B002B43
:1006500002F8013B05D011F8013B002B02F8013BE9
:10066000F3D130BD10B5431C02E010F8011B71B18D
:100670008107FAD14FF0013202C88C1A8C4314EA78
:10068000C211F9D0C01A0A0603D0C01E10BDC01A8C
:1006900010BD0A0401D0801E10BD0902FCD0401E0E
:1006A00010BD032A40F2308010F0030C00F01580DA
:1006B00011F8013BBCF1020F624498BF11F801CB65
:1006C00000F8013B38BF11F8013BA2F1040298BFCA
:1006D00000F801CB38BF00F8013B11F0030300F034
:1006E0002580083AC0F0088051F8043B083A51F8D8
:1006F00004CBA0E80810F5E7121D5CBF51F8043BDD
:1007000040F8043BAFF30080D20724BF11F8013B4F
:1007100011F801CB48BF11F8012B24BF00F8013BB1
:1007200000F801CB48BF00F8012B704710B5203A04
:10073000C0F00B80B1E81850203AA0E81850B1E89A
:100740001850A0E81850BFF4F5AF5FEA027C24BF50
:10075000B1E81850A0E8185044BF18C918C0BDE847
:1007600010405FEA827C24BF51F8043B40F8043B10
:1007700008BF7047D20728BF31F8023B48BF11F8C5
:10078000012B28BF20F8023B48BF00F8012B70471F
:1007900002F0FF0343EA032242EA024200F002B8F9
:1007A0004FF000020429C0F0128010F0030C00F09A
:1007B0001B80CCF1040CBCF1020F18BF00F8012B18
:1007C000A8BF20F8022BA1EB0C0100F00DB85FEAE6
:1007D000C17C24BF00F8012B00F8012B48BF00F8B2
:1007E000012B70474FF0000200B513469446964621
:1007F000203922BFA0E80C50A0E80C50B1F1200134
:10080000BFF4F7AF090728BFA0E80C5048BF0CC0E1
:100810005DF804EB890028BF40F8042B08BF70473F
:1008200048BF20F8022B11F0804F18BF00F8012BB1
:10083000704770477047704710B500F0BFFA006806
:1008400010BD10B5044600F0B9FA046010BD70B5D3
:10085000044685690068C10601D5302600E02026DF
:10086000C00707D070BDD4E9012130469047206A07
:10087000401C20626D1EF6D570BD70B504468569BA
:100880000078C00707D170BDD4E90121202090472E
:10089000206A401C20626D1EF6D570BD09684A05AD
:1008A00001D540B27047C905FCD500B27047096850
:1008B0004A0501D5C0B27047C905FCD580B2704762
:1008C00070B50C460546012A05D02878800600D56B
:1008D000EA69002302E0012305E05B1C934202D297
:1008E000E05C0028F9D1A869E618C01AA861286A56
:1008F000184428622846FFF7AAFF04E0D5E9012141
:1009000014F8010B9047B442F8D32846FFF7B5FF1F
:1009100070BD00002DE9F0410646002410687529DD
:10092000314616A510D0FFF7B9FF002802DA404281
:1009300013A507E031688A0701D512A502E049072F
:1009400004D511A5012401E0FFF7B1FF00210A221F
:1009500006F1240709E0B0FBF2FCB0FBF2F302FB66
:100960001C00303078541846491C0028F3D1234627
:100970002A463046BDE8F04100F082BA000000008F
:100980002D0000002B00000020000000116802680C
:10099000006A530501D508700AE0D30501D5088027
:1009A00006E0130603D5C217C1E9000200E00860A3
:1009B0000120704701694A1C02610878704700B540
:1009C0008FB0CDE901310021059105497944CDE988
:1009D00003101146684600F029F90FB000BD000071
:1009E000E5FFFFFF0A6802F8010B0A60704700008C
:1009F0002DE9FF5F15468A460446DFF8AC80F844CF
:100A00000027D8E900103E46CDE9001010E03AF882
:100A100016106A4602A800F045FE411C07D0217856
:100A2000890603D5E269391891420DD80744761C2E
:100A30002078800602D5E069B84205DDAE42E6DBEB
:100A40003AF816000028E2D1A069C01BA061204638
:100A5000FFF7FDFED8E90010CDE90010002017E0F7
:100A60003AF818106A4602A800F01CFEB0F1FF3FE9
:100A700081460BD000250DF1080B05E0D4E90121DA
:100A80001BF8050090476D1C4D45F7D308F1010098
:100A9000B0428046E4DB206A384420622046FFF7FB
:100AA000ECFEBDE8FF9F0000D65D01002DE9F0419E
:100AB0008046D21D22F007020025D2E90002F52966
:100AC00015A614D0011E72F1000106DA0023D0EB46
:100AD000030063EB020211A608E0D8F800108B07B0
:100AE00001D50FA602E0490701D50EA60125114642
:100AF000002408F1240704E000F064F930323A558C
:100B0000641C50EA0102F7D12B463246214640468A
:100B1000BDE8F04100F0B4B9000000002D00000075
:100B20002B0000002000000030B4002100F124045C
:100B300008E002F00705D208303542EA4372DB08CC
:100B40006554491C52EA0305F3D10468002310A23E
:100B5000250707D5A40600D421B1C46901230DA23D
:100B6000641EC46130BC00F08BB910B50446214648
:100B70001068FFF79CFE02462046BDE810400023A7
:100B8000D2E7D21D22F00701D1E90023CCE7000013
:100B90000000000030000000F0B40D460188090597
:100BA00002D5214C7C4402E01F4C7C440E340021D1
:100BB00000F1240608E002F00F071209E75D42EA9F
:100BC00003721B097754491C52EA0307F3D10278D8
:100BD0000023120704D5702D06D009B10223113469
:100BE0002246F0BC00F04CB901231034F8E770B590
:100BF00004460D4621461068FFF759FE0246294675
:100C00002046BDE870400023C6E7D21D22F007034E
:100C1000D3E90023C0E70368126843F020030360B0
:100C20000823C3610023B7E7385C01002DE9F05FBA
:100C3000894604464FF0000ADFF874B1FB44C0F85F
:100C400020A02046E1688847002874D0252806D0D7
:100C5000D4E901219047206A401C2062F1E7002678
:100C60005F462046E16888472028054607DB312D8E
:100C700005D2781910F8200C08B10643F1E7B00747
:100C800001D526F00406C4F81CA00027C4F818A05B
:100C90002A2D09D028460CF091FE38B304EB8708C2
:100CA000303DC8F8185019E059F8041B204604EBF1
:100CB00087029161E1688847012F054618D1E069F4
:100CC000002820DA26F020061DE0D8F8180000EBF6
:100CD000800005EB40003038C8F818002046E16875
:100CE000884705460CF06AFE0028EED1012F0AD095
:100CF0002E2D08D12046E16888477F1C0546022F2B
:100D000046F02006C4DBA069002803DA404246F022
:100D10000106A061F00701D026F010066C2D0BD063
:100D2000682D09D04C2D39D06A2D35D0742D35D091
:100D30007A2D33D016E038E0E1682F462046884708
:100D4000B842054609D16C2F26D04FF48060E16887
:100D5000064320468847054604E06C2F1AD04FF41E
:100D6000807006430DB3A5F14100192802D8203543
:100D700046F400664A462946204626604E46FFF75E
:100D800061FA80B101280BD0F61D26F0070000F1B2
:100D9000080956E74020E4E78020D8E70020D6E79E
:100DA00006F104094DE7284652E7206ABDE8F09FA6
:100DB000C85B0100004870477894002000487047E5
:100DC0007894002030B5B0F10A024FEA900E71F12C
:100DD00000034EEA817EB0EB0E0061EB91014FEA19
:100DE000101E4EEA017E10EB0E0041EB11114FEA8E
:100DF000102E4EEA016E10EB0E0041EB11214FEA6E
:100E0000104E4EEA014E10EB0E0041EB114140181E
:100E100041F100014FEAD00040EA41704FEAD101B0
:100E200010EB80054FEA810444EA907444EB01041E
:100E30006D1944EB0404521BA3414FF0000348BF5B
:100E40000A3200D530BD401C41F1000130BD000028
:100E50001FB584B000200A9C06AB04AA02A9009426
:100E6000AFF3008018B1DDE9020108B010BD0348FE
:100E7000204000F029FD00200146F6E70000207C1C
:100E80002DE9F0470D4699469246044600F12408A4
:100E90000168880604D5E06921F01001216000E0B6
:100EA0000120A84201DD471B00E00027A1697A1953
:100EB00002EB0900081AA0612078C00602D420467F
:100EC000FFF7C5FC002608E0D4E901211AF8060066
:100ED0009047206A401C761C20624E45F4DB207847
:100EE000C0060AD52046FFF7B2FC06E0D4E901218E
:100EF00030209047206A401C2062381EA7F101076D
:100F0000F4DC07E0D4E9012118F805009047206AD5
:100F1000401C2062281EA5F10105F3DC2046FFF7E6
:100F2000ACFC2078000602D50220BDE8F087012045
:100F3000FBE770472DE9FF4F0C461E464FF0FF3789
:100F40008BB0D2E90001DDF860800A908A46C1F3D7
:100F50000A5505B93D460021084613F0CBFEBAF10B
:100F6000000F00F4400005DA00EB80004FF4400170
:100F700001EA50004FEA9059B9F1010F00DDB9467E
:100F80000A9850EA4A000ED044F61050A5F2FF35F8
:100F900045432F14B8F1000F1ED07542291E1EDDE7
:100FA000C9F100021CE0B8F1010F4FF0000001D0C0
:100FB000302103E0F24305E02154401CB042FBDB4A
:100FC00030460022002121540B99C1F80880C1E964
:100FD00000200FB0BDE8F08FBD1B6D1CDEE74A4658
:100FE00000DA694206A800F0EFFB06AB93E80700C1
:100FF00003AB83E8070050460A9900F02AFD8DE80C
:101000000700A0F500501F3800900398002D0ADD5E
:1010100042F21F014A460844002303A90390684690
:1010200000F093FF09E0A0F500504A461F38002366
:1010300003A90390684600F09DFF8DE807000004B7
:10104000000C03D04FF0FF30410800E01046B8F12B
:10105000000F03D00022009215461EE0751E05D435
:10106000FFF7B0FE303262556D1EF9D5B34601224E
:10107000084302D000227F1C04E02078302801D1F0
:1010800000227F1E002A099784D01DE0112D07DA67
:10109000FFF798FE303262556D1C50EA0102F5D11F
:1010A000084302D00098C8B10EE00021681E05E098
:1010B000235C625C63542254401E491C8142F7DB6E
:1010C000AB46A81B401E0990002004F80B000B98AB
:1010D000099AC0F80880C0E9002B7AE711264FF082
:1010E000000857E72DE9F04F88460446D21D22F04C
:1010F000070191B0D1E90001CDE90A010BF0AFFB86
:1011000002460B98C00F01D02D2007E02068810710
:1011100001D52B2002E0202101EAC000032A09901A
:1011200001D0072A05DB03464146204600F00CFBB0
:101130000BE12078800601D5E06900E00620B8F1D7
:10114000650F814606D0B8F1660F18D0B8F1670F69
:1011500070D131E00020B9F1110F009001DB1123B3
:1011600001E009F101030AAA01A90CA8FFF7E2FEB8
:10117000DDE90C70002609F10105834647E00120F6
:101180004B4600904FF000470AAA01A90CA8FFF7B0
:10119000D1FEDDE90DB00C995D46002610B909F1CC
:1011A00001000D18B9EB050003D4C0F1FF3609F1B9
:1011B0000105A5EB09002BE0B9F1010F01DA4FF0B1
:1011C00001090020B9F1110F0090484601DD1123FB
:1011D00000E003460AAA01A90CA8FFF7ABFEDDE96F
:1011E0000C704D4600268346207800070AD4AB4594
:1011F00000DA5D4601A8012D04DD411911F8011C3A
:10120000302907D04F4502DA17F1040F04DA012024
:1012100082460FE06D1EEEE7002F02DCED1B3E4420
:1012200003E0781CA84200DD7D1CB81B00F1010A18
:101230004FF000472078000703D4AA4501DB4FF0A8
:10124000FF3A0021B7F1004F0DF143088DF843102C
:1012500024D002202B23002F01DA7F422D230A21E4
:10126000021EA0F1010000DC5FB197FBF1FC97FBCF
:10127000F1F201FB1C7C17460CF1300C08F801CD93
:10128000EEE7A8F1010003702188090501D5452189
:1012900000E06521A0F1010800F8011C09980FA9E0
:1012A000A1EB0807FF1D00B10120411901EBEA7015
:1012B000A1693844081A401EA0612078C00602D4F3
:1012C0002046FFF7C4FA099828B1D4E901219047D4
:1012D000206A401C20622078C00622D52046FFF7F5
:1012E000B6FA1EE0002E04DBB34502DD01A8805DE6
:1012F00000E03020D4E901219047206A401C2062A0
:10130000761CAAF101005FEA000A0AD100F018FA7F
:10131000C0680168405CD4E901219047206A401C04
:101320002062281EA5F10105DCDC07E0D4E90121DB
:1013300018F8010B9047206A401C2062381EA7F164
:101340000107F3DC2046FFF798FA032011B041E6CD
:101350002DE9F04F04460D46D21D22F0070089B05A
:10136000D0E90097484639460BF079FA0246F80F63
:1013700001D02D2307E02068810701D52B2302E04F
:10138000202101EAC0038DF820300BB1012000E0DC
:101390000020032A824601D0072A04DB2946204682
:1013A00000F0D2F93FE12078800601D40D2500E05D
:1013B000E569C7F30A560D2D49DA00214FEA175B9C
:1013C000084613F097FC002F00F4400007DA00EB0A
:1013D00080004FF4400100EBD07001EA60008115FD
:1013E000012901DD4FF0FF3100224FEA850CBCF1ED
:1013F000180F06D31346ACF118004FF08052C240CC
:1014000003E04FF4801323FA0CF30CF10C0CBCF145
:10141000200F04D3ACF1200C09FA0CF001E007FA1C
:101420000CF000294FF0004801DD18B90FE00ED193
:1014300040450CD319EB02095F4121B9404502D167
:101440009F4329EA0209BBEB175F00D0761C208876
:10145000000502D57B48784402E07A487844193880
:1014600008AA302302F80A30037C0AF10101002E99
:101470000AF1020A53546A4602DC4FF0300101E0DF
:101480004FF031014FF001088DF8001002D0A6F2A4
:10149000FF3603E059EA470100D06B4E002D02DC15
:1014A0002178090704D54FF002082E218DF801108C
:1014B000C44600210BE0C7F303433F01C35C491C52
:1014C0006D1E02F80830052908F1010801DA002D27
:1014D000F1DC00210CE000EB1973491C1B786D1E38
:1014E000082902F808304FEA091908F1010801DA61
:1014F000002DF0DC21688B0602D516E0A8F101086A
:10150000E04505DD02EB080313F8013C302BF5D074
:10151000B8F1000F09DD02EB080313F8013C2E2B94
:1015200003D1090701D4A8F10108002D05DD3E21F2
:1015300002F808106D1E08F10108407C002E02F828
:10154000080008F1010804DA2D20764202F80800AC
:1015500002E02B2002F808000A214FF47A7086423C
:1015600008F101080BDB96FBF0F3303302F808308A
:1015700096FBF0F308F1010800FB136601E0642E0E
:101580000CDB642096FBF0F3303302F8083096FB56
:10159000F0F308F1010800FB136601E00A2E06DBF8
:1015A00096FBF1F0303002F8080008F1010896FBD4
:1015B000F1F001FB1060303002F80800A16908F179
:1015C000010808EB050202EB0A00081AA061207866
:1015D000C00602D42046FFF73AF9216A08AE01EBB3
:1015E0000A00206204E0D4E9012116F8010B9047BB
:1015F000BAF1010AF7D22078C00602D52046FFF7DB
:1016000026F96E4609E016F8010B3E280FD0D4E902
:1016100001219047206A401C2062B8F10108F2D2F3
:101620002046FFF72AF909B00320BDE8F08F206AB1
:101630002844206203E0D4E90121302090476D1E48
:10164000EBD3F8E7F954010002FCFFFF10B5436942
:1016500013B1AFF3008001E0FFF732F9012010BDB4
:10166000127800F124010A7000224A700122EDE78D
:1016700011684FF0FF32E9E710B5436913B1AFF3DA
:10168000008001E0FFF7B4F9012010BD128800F1DD
:10169000240182840022C2840122EDE711684FF008
:1016A000FF32E9E770B516460C46054600F040F8F3
:1016B000036893F80101012806D0FF2C0FD8185DAC
:1016C00068B101202C7070BDD3F807013246214665
:1016D00003F2071303442846BDE8704018474FF053
:1016E000FF3070BD70477546FFF764FBAE460500DE
:1016F0006946534620F00700854618B020B5FEF72E
:101700007BFEBDE820404FF000064FF000074FF091
:1017100000084FF0000B21F00701AC46ACE8C0090F
:10172000ACE8C009ACE8C009ACE8C0098D46704718
:1017300010B500F005F8001D10BD00BF691C0100C8
:1017400000487047989400202DE9F0411F46044658
:1017500003260168072A01F4006004DB08B116A51E
:1017600005E016A503E008B115A500E015A521F0D8
:1017700010002060A069C01EA0610FB1401EA061D2
:101780002046FFF764F84FB1D4E90121384690476D
:10179000206A401C2062C01C206206E0206AFAE732
:1017A000D4E9012115F8010B9047761EF8D22046A6
:1017B000FFF763F8BDE8F0814E414E006E616E00A8
:1017C000494E4600696E66002DE9F047814616468F
:1017D0008AB0354878440DC88DE80D003248784409
:1017E000801C03AC0DC884E80D0041F69B30084412
:1017F000372190FBF1F290FBF1F5A5F1800501FB9B
:1018000012041B3C02D56442012000E00020DFF8F6
:1018100098A080460027FA44AAF1BE0A0EE0E0072D
:101820000AD03246684607EB470101230AEB8101E3
:1018300000F0A0FB8DE8070064107F1C002CEED1A7
:10184000194F7F44AE3F19E0E80715D007EB0410AD
:101850000DF1180A90E80E008AE80E00C068F04208
:1018600001D1981908903246012306A903A800F077
:1018700081FB03AB83E807006D10641C002DE3D1EE
:101880004FF0010332466946B8F1000F03A802D0B9
:1018900000F05BFB01E000F06DFBC9E90001C9F855
:1018A00008200AB0BDE8F0870C52010010B50446CC
:1018B000AFF300802046BDE81040FEF728BD0028A9
:1018C00001D000F009B8704710B500F025F8BDE868
:1018D0001040FFF7F4BF000001491820ABBEFEE73F
:1018E0002600020070B505460C460A2000E06D1C7B
:1018F00000F0A8F835B128780028F8D102E0641C7F
:1019000000F0A0F814B120780028F8D1BDE87040AC
:101910000A2000F097B8000010B5022803D041015A
:1019200003D50DA112E0002010BD010101D50FA1CA
:101930000CE0C10001D511A108E0810001D512A180
:1019400004E0400001D513A100E0002115A0FFF73D
:10195000C9FF012010BD0000496E76616C696420EA
:101960004F7065726174696F6E000000446976693A
:101970006465204279205A65726F00004F76657267
:10198000666C6F7700000000556E646572666C6F60
:1019900077000000496E6578616374205265737545
:1019A0006C7400005349474650453A2041726974AF
:1019B000686D6574696320657863657074696F6EBE
:1019C0003A2000004FF0013C50F8042B51F8043B42
:1019D0009A4221D1A2EB0C03934313EACC1317D103
:1019E00050F8042B51F8043B9A4215D1A2EB0C039A
:1019F000934313EACC130BD150F8042B51F8043B5A
:101A00009A4209D1A2EB0C03934313EACC13DBD027
:101A10004FF00000704700BFD01A01BAB1FA81F14F
:101A200001F0180122FA01F0CB40C1F12001DBB234
:101A3000C0B2C01A2CFA01F3D11A914311EAC311B2
:101A4000E6D1704708B569468DF800000320ABBEAB
:101A500008BD5FEA400C08BF91F0000F4FEA8C23ED
:101A60004FEAC12243EA51514FEA1C5018BF00F51A
:101A7000F0404FEA300018BF41F000415FEA6C5C73
:101A800000F02980BCF1FF3F08BF40F08040704764
:101A9000130C06BF12044FF0100C4FF0000C130E85
:101AA00004BF12020CF1080C130F04BF12010CF159
:101AB000040C930F04BF92000CF1020CD30F04BF6F
:101AC00052000CF1010C11464FF00002A0F11F0072
:101AD000A0EB0C00704711F0004F08BF704731F0C9
:101AE00000413FF4D5AF0B0C06BF09044FF0100CBA
:101AF0004FF0000C0B0E04BF09020CF1080C0B0F89
:101B000004BF09010CF1040C8B0F04BF89000CF118
:101B1000020CCB0F04BF49000CF1010CCCF12003E7
:101B2000A0EB0C0022FA03F302FA0CF241EA0301E3
:101B300000F10100704720F07F4C80EA030023F0A1
:101B40007F47ACEB070303F57C5300F0004003F143
:101B5000FF032DE980494FEA154B09B44FEA1443BE
:101B600025EA0B4E24EA03480FF2042606EB13275E
:101B700049083E785FEA320203FB0667C7F50007B3
:101B800007FB06F64FEA54374FEAD64606F102063F
:101B900007FB066CCCF1005C4FEA1C472CEA074CB3
:101BA00007FB06F40CFB06F504EB15464FEA961608
:101BB00034BF00204FF000404FEAD13706FB07FC4E
:101BC0004FEA1C4C0CFB0BF7D21B03FB0CF761EB31
:101BD00007010CFB0EF7B0EB074072EB17420CFB52
:101BE00008F734BFA2EB0742B2EB074261EB1741A3
:101BF0004FEA0C444FEA910706FB07FC4FEA1C4CE6
:101C00000CFB0BF7B0EBC74072EB573203FB0CF742
:101C100034BFA2EBC742B2EBC74261EB57310CFBBA
:101C20000EF7B0EBC70072EB57720CFB08F734BF2E
:101C3000A2EBC702B2EBC70261EB5771039F4FEAF9
:101C4000816141EA921104EBCC044FEAD1374FEAAB
:101C5000826206FB07FC42EA90124FEA80604FEA7C
:101C60001C4C0CFB0BF7D21B03FB0CF761EB0701C1
:101C70000CFB0EF7B0EB074072EB17420CFB08F7BA
:101C800034BFA2EB0742B2EB074261EB17414FEAC8
:101C90008C554FEA910704EB9C2406FB07FC4FEAA6
:101CA0001C4C0CFB0BF7B0EBC74072EB573203FB3D
:101CB0000CF734BFA2EBC742B2EBC74261EB57311E
:101CC0000CFB0EF7B0EBC70072EB57720CFB08F77A
:101CD00034BFA2EBC702B2EBC70261EB577115EB41
:101CE0004C254FEA816141EA92114FEA82624FEA44
:101CF000D13742EA901206FB07FC44F100044FEA98
:101D000080604FEA1C4C0CFB0BF7D21B03FB0CF75B
:101D100061EB07010CFB0EF7B0EB074072EB1742CB
:101D20000CFB08F734BFA2EB0742B2EB074261EBB2
:101D3000174115EB1C154FEA813141EA92414FEAF8
:101D4000823242EA90424FEA80304FEA0C7644F108
:101D5000000448EA03434EEA0B484FF0000EB2EB92
:101D6000080C71EB030724BF624639464EEB0E0E9A
:101D70004FF0000B0018524149414BEB0B0BB2EBFB
:101D8000080C71EB03077BF1000B24BF6246394658
:101D90004EEB0E0E4FF0000B0018524149414BEB39
:101DA0000B0BB2EB080C71EB03077BF1000B24BFAC
:101DB000624639464EEB0E0E51EA020718BF46F056
:101DC000010616EB0E7655F1000254F1000103D521
:101DD000BDE88901BDE80088BDE88901BDE800488B
:101DE000B619524141EB0101A3F101037047808014
:101DF0007F7E7D7C7B7A7978777676757473727165
:101E000071706F6E6E6D6C6C6B6A6A69686867661C
:101E100066656464636362616160605F5F5E5E5DAE
:101E20005D5C5C5B5B5A5A59595858575756565522
:101E300055555454535352525251515050504F4F84
:101E40004F4E4E4D4D4D4C4C4C4B4B4B4A4A4A49D4
:101E50004949484848474747474646464545454417
:101E60004444444343434342424242414141002BA4
:101E70009C4630D477002BD01CB54FEA370703B40B
:101E80004FF010004FF01001BAF1000F06D0BCF176
:101E9000000FDCBF40F0080040F0080112F02AFFFC
:101EA0000FBCBDE810400BF1010BBBF1010F08BFE7
:101EB0005FEA170722BF12F1010211F101014FF091
:101EC000004143F1000300F0004043EA0000704786
:101ED000F9D35708D0E746EA064613F1400F4FEA18
:101EE00016461FDD13F1200FDFBF16430A460021FF
:101EF00020335B42BED0C3F1200746EA064602FA11
:101F000007F74FEA164646EA0706C3F1200722FA0A
:101F100003F201FA07F721FA03F14FF0000342EA56
:101F20000702A7E746EA020646EA06464FEA1646D1
:101F300046EA0106BCBF46EA0646360C4FF00003EF
:101F40004FF000024FF0000194E72DE9804C9A46D3
:101F5000934670B491E8380007C831EA400C48BF96
:101F600034EA430C03D5FFF7E6FDFFF780FFF0BC32
:101F7000BDE8008C2DE9804C9A46934670B491E8F8
:101F8000380007C810F0804F08BF13F0804F03D10E
:101F900000F005F8FFF76BFFF0BCBDE8008C20F007
:101FA0007F4780EA030023F07F4C07EB0C03A3F587
:101FB0007C5300F00040A3F1FE0392F0000F00F00C
:101FC000B38095F0000F00F077802DE901494FEACA
:101FD00011404FEA144621EA004800FB06FC24EABF
:101FE000064708FB06F607FB08F800FB07F718EBA7
:101FF00006484CEB164C4FEA124B18EB07484FEAD9
:1020000015464CEB174022EA0B4E0BFB06FC25EA6B
:1020100006470EFB06F607FB0EFE0BFB07F71EEB53
:10202000064E4CEB164C4FF000061EEB074E4CEBE9
:10203000174B18EB0B0840F1000018EB0E0B58EB98
:10204000000840F100008F1A4FF000013CBFC94367
:10205000661B14BFB5EB040C00213CBFC943F61B43
:102060004FEA17444EEA8E0E27EA04454FEA1C4712
:1020700004FB07622CEA074C05FB07F70CFB05F68F
:1020800004FB0CFC16EB074642EB174216EB0C4622
:1020900042EB1C421BEB060658EB0202414146EAAA
:1020A0009E0601D5BDE80189B619524141EB0101F7
:1020B000A3F10103BDE801894FEA14454FEA114736
:1020C00024EA054621EA074C05FB07F406FB07F75F
:1020D0000CFB06F105FB0CFC11EB074144EB17442C
:1020E0004FEA124711EB0C4144EB1C4422EA074C27
:1020F00005FB07F206FB07F70CFB06F605FB0CFCDD
:1021000016EB074642EB174216EB0C4642EB1C451A
:102110006A1854F1000148BF7047B619524141EBAB
:102120000101A3F10103704795F0000F37D04FEA8A
:1021300011424FEA144721EA024624EA074C02FB07
:1021400007F106FB07F70CFB06F402FB0CFC14EB93
:10215000074441EB17414FEA154714EB0C4441EBA0
:102160001C4125EA074C02FB07F506FB07F70CFBB1
:1021700006F602FB0CFC16EB074645EB174516EB83
:102180000C4645EB1C42121951F1000148BF704743
:10219000B619524141EB0101A3F1010370474FEA27
:1021A00014454FEA114724EA054621EA074C05FB8E
:1021B00007F106FB07F70CFB06F24FF0000605FBE4
:1021C0000CFC12EB074241EB174112EB0C4251EBB6
:1021D0001C4148BF7047921841EB0101A3F1010374
:1021E000704700004A494A6822F440324A604A680F
:1021F00043681A434A6001684A6822F480724A6060
:1022000001684A68036942EA03224A6001684A6831
:1022100022F040724A6001684A6883681A434A6043
:1022200001688A6822F400628A6001688A68C3686B
:102230001A438A60816A6FF07062D14214D00168DB
:102240008A6822F070628A6001688A68836A1A4329
:102250008A6001688A6822F040528A6001688A6850
:10226000C36A1A438A6009E001688A6822F07062D2
:102270008A6001688A6822F040528A6001688A6830
:1022800022F002028A6001688A68037E42EA430201
:102290008A6090F8201089B101684A6842F40062AF
:1022A0004A6001684A6822F460424A6001684A68EC
:1022B000436A5B1E42EA43324A6004E001684A68AE
:1022C00022F400624A600168CA6A22F47002CA629B
:1022D0000168CA6A838B5B1E42EA0352CA620168C4
:1022E0008A6822F400728A6001688A6890F8303047
:1022F00042EA43228A6001688A6822F480628A6026
:1023000001688A68406942EA80208860704700005E
:10231000002301400AF0CEBA0AF0CEBCFEF77EB828
:10232000F0EE400AF5EEC00AF1EE10FA02DDB0EE72
:10233000600A7047B1EE600AFBE70000002803D096
:102340009FED020A80ED000A7047000000000000C7
:10235000002803D0B3EE060A80ED000A70470000A3
:1023600070B52DED0C8B84B006460C4615469FEDDE
:10237000990AF0EE408A9FED970AB0EE409A9FEDE1
:10238000950AF0EE40BA9FED930AF0EE409A9FED69
:10239000910AB0EE40AA0EB104B11DB904B0BDEC73
:1023A0000C8B70BD8C48FFF7C9FF8C48FFF7D0FF3E
:1023B0008A48D0ED000A9FED8A1A60EE810AB0EEDD
:1023C000600A00F025F9F0EE408A28EEA80AF0EE47
:1023D000408A8248D0ED000AB0EE001A60EE810A11
:1023E0009FED7F1A60EE810AB0EE600A00F010F9EE
:1023F000B0EE409A29EE090AB0EE409ADFED790A74
:10240000B7EE000A00EEA80ADFED770A00EEC90A6F
:10241000DFED760A20EE200A754880ED000A6E484E
:1024200090ED000ADFED730A80EE201AB7EE000A85
:1024300031EE000A20EE000A6D48D0ED000A80EE71
:10244000801A6D4880ED001A94ED000AB5EEC00ABE
:10245000F1EE10FA0DD194ED010AB5EEC00AF1EEDD
:1024600010FA06D194ED020AB5EEC00AF1EE10FAA8
:1024700046D09FED580AB0EE408A002001900290AD
:102480000390D4ED000A60EEA00A94ED011AD4ED99
:10249000011A41EE210A94ED021AD4ED021A41EE1E
:1024A000210AB0EE600A00F0A9F8B0EE408A94ED7F
:1024B000000A20EE080A8DED010A94ED010A20EED3
:1024C000080A8DED020A94ED020A20EE080A8DED4D
:1024D000030ADDED010AF1EE600AB0EE600AFFF7D3
:1024E00019FFF0EE409A9DED031AF0EE410A9DEDC2
:1024F000021AB0EE410AFFF70FFFB0EE40AA07E064
:102500009FED340AF0EE409A9FED320AB0EE40AAF9
:1025100095ED000AB5EEC00AF1EE10FA0DD195ED79
:10252000010AB5EEC00AF1EE10FA06D195ED020AE5
:10253000B5EEC00AF1EE10FA3CD0B0EE690A00F038
:1025400067F8B0EE408AB0EE690AFFF7E7FEB0EE3A
:1025500040DAB0EE4A0A00F05BF8F0EE40AAB0EEC6
:102560004A0AFFF7DBFEB0EE40BA28EE2A0AD5EDA4
:10257000010A20EE200AD5ED000A0DEE200A68EED1
:102580000B0A95ED021A00EE810AB0EE40CA95EDF5
:10259000010A20EE0B0AD5ED020A0AEEE00AF0EE7F
:1025A00040CAF0EE6C0AB0EE4C0AFFF7B5FEF0EE52
:1025B00040BA03E09FED070AF0EE40BAB0EE4A1AC7
:1025C000F0EE690AB0EE6B0A30460BF057FF00BF21
:1025D000E4E6000000000000FC07002000080020E6
:1025E00035FA8E3CC1BFAD3B9DF8C5362F7C1C41F2
:1025F00004080020506CC24A0808002010B50AF0F8
:1026000094FDB7EE001AC1EE000AB0EE600A10BDEC
:10261000FDF740BF2DE9F0412DED028B9AB0054644
:10262000B0EE408A0E461746984600201790189044
:1026300019901490159016904DB146B13FB1B8F174
:10264000000F04D0B5EEC08AF1EE10FA05D10020DB
:102650001AB0BDEC028BBDE8F08196ED000A8DED5D
:10266000170A96ED010A8DED180A96ED020A8DED16
:10267000190A97ED000A8DED140A97ED010A8DED08
:10268000150A97ED020A8DED160A17AA14A9284615
:102690000BF028FD402104A8FEF7A4F800200090CC
:1026A000019002900390002417A904A80FF048FDA0
:1026B00000BF30E004A800EB041090ED000AD5ED57
:1026C000000A20EE200A04A800EB0410D0ED010A55
:1026D00095ED011A00EE810A04A800EB0410D0ED7C
:1026E000020A95ED021A00EE810A04A800EB04101C
:1026F000D0ED030A95ED031A00EE810A20EE080AD8
:10270000F0EE000A80EE201A684600EB840080EDAF
:10271000001A601CC4B2042CCCDB002410E005EBD2
:10272000840090ED000A684600EB8400D0ED000ABA
:1027300030EE200A05EB840080ED000A601CC4B274
:10274000042CECDB28460FF06FF9012080E7000035
:1027500001221021014803F019BC000000000240D2
:1027600000221021014803F011BC000000000240CB
:102770007047000001221146014803F007BC000029
:102780000004024000220121014803F0FFBB0000C9
:102790000004024030B5437804781B021BB2234387
:1027A00000EE103A1B4CB8EEC00AD4ED000A20EE41
:1027B000200A81ED000AC37885781B021BB22B43E7
:1027C00000EE103AF8EEC00A94ED000A60EE800ABE
:1027D000C1ED010A437904791B021BB2234300EEC9
:1027E000903AF8EEE00A20EE800A81ED020A017AC2
:1027F000C3790904807941EA0321014300EE101AEC
:10280000DFED050AB8EE400A20EE200A82ED000A4C
:1028100030BD00004003002000401C4270470EF015
:10282000ABBB0DF013BB000010B542780378120269
:1028300012B21A4300EE102A124BB8EEC00AD3EDC2
:10284000010A20EE200A81ED000AC2788478120283
:1028500012B2224300EE102AF8EEC00A93ED010AEC
:1028600060EE800AC1ED010A42790079120212B2CB
:10287000024300EE902AF8EEE00A20EE800A81ED95
:10288000020A10BD4003002010B5FFF771FFFFF7EB
:10289000C5FF0BF04DFF08B1802402E00BF0BAFE3B
:1028A00004460CF00BF910B144F0400010BD0CF0E0
:1028B00097F8204310BD00002DE9FC4104460D4669
:1028C0001646002000900190FFF74AFF922000F08A
:1028D000BFF806226946122000F09CF8FFF738FF87
:1028E0009DF801009DF80010000200B2084300EEC0
:1028F000100A474FB8EEC00AD7ED000A20EE200AB2
:1029000085ED000A9DF803009DF80210000200B258
:10291000084300EE100AF8EEC00A97ED000A60EED8
:10292000800AC5ED010A9DF805009DF8041000021B
:1029300000B2084300EE900AF8EEE00A20EE800AAA
:1029400085ED020AFFF71EFF08226946002000F00D
:1029500061F8FFF70FFF9DF800000F2830D19DF8B8
:1029600003009DF80210000200B2084300EE100AB6
:10297000D7ED010AB8EEC00A20EE200A84ED000A65
:102980009DF805009DF80410000200B2084300EE17
:10299000100AF8EEC00A97ED010A60EE800AC4ED55
:1029A000010A9DF807009DF80610000200B20843D6
:1029B00000EE900AF8EEE00A20EE800A84ED020AAA
:1029C000FFF7CEFEA22000F043F802226946222043
:1029D00000F020F8FFF7BCFE9DF800009DF8011004
:1029E000C00040EA5110B0F5806F02DBA0F5006036
:1029F00000B200EE100AB4EE001AF8EEC00AB3EE10
:102A0000070A00EE810A86ED000ABDE8FC8100009D
:102A10004003002070B50D46144640F0800000F0E1
:102A200017F806E0552000F013F805F8010B641EB6
:102A3000E4B2002CF6D170BD10B50C4640F0800019
:102A400000F006F8552000F003F8207010BD0000DB
:102A500001B582B04FF47A700090012301AA02A957
:102A6000024804F029FD9DF804000EBD90100020DE
:102A700002784078D20042EA5010B0F5806F02DB55
:102A8000A0F5006000B200EE100AB4EE001AF8EEF5
:102A9000C00AB3EE070A00EE810A81ED000A704712
:102AA00010B50C46FFF7D4FF2046BDE81040FFF7F5
:102AB000CFBFFEE7014802F04ABA0000440F0020F1
:102AC000014802F044BA00006C0F002008B5012351
:102AD00000930F4B186000209860D86008201861A0
:102AE0000C480068826852010AD48268120102D53B
:102AF0000220009004E08068C00001D5042000900E
:102B00000A466B460249034802F05AF808BD000025
:102B1000B0160020440F00202DE9F04781462DED2E
:102B2000048B84B001270397DFED448A4FF000083F
:102B300010EE100A4249884202D3BBEE028A09E035
:102B400010EE100A3F49884202DBB3EE028A01E030
:102B5000B0EE408A10209FED3C1ADFED3C0AB0EE4B
:102B6000680A0DF073FB04460C209FED391ADFED67
:102B7000390AB0EE680A0DF069FB0546B0EE689AB6
:102B80000C209FED351AF0EE490AB0EE680A0DF000
:102B90005DFB06460C20B1EE041AF0EE490AB0EED9
:102BA000680A0DF053FB82460C20B3EE021AFBEECE
:102BB000020AB0EE480A0DF049FB210A8DF8041014
:102BC0008DF8054029098DF80610290141EA1621E2
:102BD0008DF807108DF808604FEA1A118DF809106A
:102BE0004FEA0A1141EA10218DF80A108DF80B0006
:102BF0001A48C0F80090C0F80880C0F80C8008217E
:102C00000161174800688168490101D503970AE00E
:102C10008168090102D50220039004E08068C000A9
:102C200001D50420039003AB01AA0C490C4801F024
:102C3000C7FF04B0BDEC048BBDE8F08700000000C6
:102C4000000090C1000090410000BF420000BFC2E0
:102C500000003442000034C20000FA43B0160020E5
:102C6000440F002008B5094940F223120A600022EF
:102C70008A60CA6001220A61054908700A466B46EB
:102C80000249044801F09CFF08BD0000C81600205E
:102C9000AE0000206C0F002008B50C490860002031
:102CA0008860C86008220A61094988220A70487051
:102CB0008870C870087148718871C8710A466B467F
:102CC0000249044801F07CFF08BD0000B016002056
:102CD000AF000020440F002003B581B00D4A106002
:102CE00000219160D160082010610B48A122027080
:102CF00041708170C1709DF8082002719DF8092013
:102D000042718171C17102466B460249034801F06C
:102D100057FF0EBDB0160020AF000020440F00206A
:102D200008B50A494FF404720A6000228A60CA603A
:102D300002220A610649020A0A7048700A466B4676
:102D40000249044801F03CFF08BD0000B016002015
:102D5000AF000020440F002008B50C494FF4E0609C
:102D6000086000208860C86008220A61084908706D
:102D700048708870C870087148718871C8710A46B7
:102D80006B460249034801F01BFF08BDB016002046
:102D9000AF0000206C0F002008B5084905220A602A
:102DA00000228A60CA6001220A61054908700A4649
:102DB0006B460249034801F003FF08BDC816002016
:102DC000AE0000206C0F00200CB501788DF80010CB
:102DD00041788DF8011081788DF80210C1788DF856
:102DE000031001798DF8041041798DF8051081796F
:102DF0008DF80610C0798DF8070005489DED000A92
:102E000080ED000A9DED010A80ED010A0CBD000075
:102E1000CC1700200CB501788DF8001041788DF8A2
:102E2000011081788DF80210C1788DF803100179B6
:102E30008DF8041041798DF8051081798DF8061010
:102E4000C0798DF8070005489DED000A80ED020A63
:102E50009DED010A80ED030A0CBD0000CC17002097
:102E600008B501798DF8001041798DF8011081794C
:102E70008DF80210C1798DF803104178027841EA8B
:102E8000022206490A76C278807842EA0020488306
:102E90009DED000A81ED040A08BD0000CC1700205A
:102EA00008B501788DF8001041788DF8011081780F
:102EB0008DF80210C0788DF8030003489DED000ADC
:102EC00080ED050A08BD0000CC17002008B5094CAC
:102ED0000DF0C6FB69460EF037FF9DF80000FFF7C6
:102EE0005BFF94F81001FFF7BDFE0A200EF044F8D6
:102EF000EEE70000CC2100202DE9F04104462DED45
:102F0000028B0125A0780026032838D120790628D5
:102F100035D0206B11F090FD41EC100B0AF058F801
:102F20009FED481B51EC100B53EC112B11F025F9C0
:102F300001D8A57423E0D4F8D40011F07DFD41EC54
:102F4000100B0AF045F89FED411B51EC100B53ECB0
:102F5000112B10F037FF12D2206B11F06DFD41ECF8
:102F6000100B0AF035F89FED3B1B51EC100B53ECA6
:102F7000112B10F027FF02D2A07C00B1A674207A9A
:102F8000032803D02079032803D018E0E673667382
:102F900015E03248D4F8E0203149824204DCA26FC7
:102FA0008A4201DDE57300E06673D4F8DC208242DA
:102FB00004DCE06E884201DD657300E0E673A07C0E
:102FC000012809D1A17B09B1217C29B9617B0129A3
:102FD00036D0E17B012933D0012800D06674607CB3
:102FE000204F08B1E6736673F86911F025FD41ECD6
:102FF000180BD4F8D40011F01FFD41EC100B09F0B0
:10300000E7FF53EC182B51EC100B11F0B6F813D26C
:10301000386A11F011FD41EC180BA06B11F00CFD9A
:1030200041EC100B09F0D4FF53EC182B51EC100BB2
:1030300011F0A3F800D22577BDEC028BBDE8F0813A
:103040006574CCE7000000000000D03F00000040A5
:103050003333D33F000000A09999B93F0000A0404E
:10306000B81E053EB80000202DE9F04104462DEDC4
:103070000C8B204605F06CFEE77B9FEDF79AF74E30
:10308000012F1ED0607B01281BD0A07AC8B1D6EDDD
:10309000100A94ED0D0A06F1A400B1EE601AB4EE28
:1030A000C10AF1EE10FA11D230EE200A94ED161A90
:1030B000D0ED000A31EE400A20EE200A86ED1D0A0E
:1030C00018E084ED4D9A84ED4C9A39E0B4EEE00AB4
:1030D000F1EE10FA0CDD30EE600A94ED161AD0ED28
:1030E000000A31EE400A20EE200A86ED1D0A01E0BA
:1030F00086ED1D9AD6ED110A94ED100AB1EE601A14
:10310000B4EEC10AF1EE10FA0AD230EE200A90EDC8
:10311000011AB1EE400A21EE000A86ED1E0A0FE008
:10312000B4EEE00AF1EE10FA08DD30EEC00A90EDE0
:10313000011A21EE000A86ED1E0A01E086ED1E9AB4
:1031400094ED248AD4ED279AC448D4ED2A8AAC3071
:1031500038EE690AD0ED000A94ED2BBA90ED011A11
:1031600020EE200A78EECB0A01EE200A84ED410A17
:10317000B1EE400A84ED420AB3EE051A94ED1D0A41
:10318000D4ED1B0A0830F0EE411A30EE600A90EDE3
:10319000002A42EE001AC4ED4E1AD4ED210A96ED33
:1031A000120AF4EEC00AF1EE10FA08DD70EE600AC1
:1031B000D0ED012A42EEA01AC4ED4E1A0EE0F1EE57
:1031C000402AF4EEE20AF1EE10FA07D270EE800A1D
:1031D000D0ED012A42EEE01AC4ED4E1AD4ED200AD9
:1031E000D4ED1E1A70EEE10A02EE201A84ED4F1A99
:1031F000D4ED220AF4EEC00AF1EE10FA08DD30EE4A
:10320000600AD0ED011A01EE801A84ED4F1A0EE02B
:10321000F1EE401AF4EEE10AF1EE10FA07D230EEC8
:10322000800AD0ED011A01EEC01A84ED4F1A207AFF
:10323000DFF828828A4D08F1BC0805287ED0207965
:1032400006287CD0A07A00287AD0A078042877D0ED
:1032500094ED260AD5ED180AD4ED0F1A30EE480A7F
:1032600020EE201A95ED190AD4ED0C0A00EE281A6A
:1032700094ED150A30EE600AD5ED1C0A00EEC01A76
:10328000D4ED180A70EEE10AD5ED1D1A01EEE01A30
:1032900084ED391A94ED291AD5ED241A31EE691A04
:1032A00021EE211AD5ED251A01EE8B1AD5ED261A3D
:1032B00001EEC01A95ED270A10EE201A84ED3A1A95
:1032C00020799FED68AB06286FD095ED050AF1EEE9
:1032D000680A95ED041A20EE200AD4ED260A94ED32
:1032E00018CAD4ED0FCA70EEC80A01EE600AD4ED18
:1032F000150A94ED0C1A70EEC1BAD5ED080A95EDD9
:10330000091A00EEEB0A7CEE6C0A01EE200ABDEE13
:10331000C00A10EE100A10F01DFD53EC1A2B10F02D
:103320008DFD10F061F8C4F8EC0095ED110AF1EE96
:103330004B0A20EE200AD4ED290A02E024E035E011
:103340003DE070EEE90A95ED101A01EE600AD5ED48
:10335000120A95ED131A00EEEB0A7CEECC0A11EE80
:10336000200ABDEEC00A10EE100A10F0F3FC53EC78
:103370001A2B10F063FD10F037F8C4F8F00004F5D4
:103380008060012F72D07FE098ED000AD8ED010A2D
:1033900020EE080A00EEA80A84ED390A84ED3A9A74
:1033A00084ED3F9A84ED409A8AE711E084ED409ADB
:1033B00084ED3A9A84ED3F9A84ED399A80E784ED62
:1033C000409A84ED3A9A84ED3F9A84ED399A77E7F2
:1033D00084ED3B9A84ED3C9A94ED330AD4ED350AA2
:1033E00096ED02BA94ED0B1A70EE609AD4ED360A9F
:1033F000B1EE4B0A96ED03CA29EE800A70EEC1BA0F
:10340000D4ED0ECA96ED04DA0CEE6B0A0DEE2C0A22
:10341000BDEEC00A10EE100A10F09CFC53EC1A2B03
:1034200010F00CFD0FF0E0FFC4F8F4002BEE8C0A56
:103430000BEE690A1DEE2C0ABDEEC00A10EE100A52
:1034400010F088FC53EC1A2B10F0F8FC0FF0CCFFB6
:10345000C4F8F80093E709E000000000B80000207D
:10346000F02F00208FC2F5285C27634084ED3A9A44
:1034700090ED860AD6ED010A20EE200A84ED3E0A80
:1034800084ED409A84ED3C9A617B012917D198ED37
:10349000000AD8ED010A20EE080A00EEA80A84ED21
:1034A000390A90ED7C0AD6ED010AB1EE400A20EE11
:1034B000200A84ED3D0A84ED3F9A84ED3B9A104941
:1034C000D4F8FC000F4AF2EE0E0ABAEE0E0A884259
:1034D00002DDC4ED3F0A03E0904201D984ED3F0ACA
:1034E000D4F80001884205DDC4ED400ABDEC0C8B28
:1034F000BDE8F0819042F9D984ED400AF6E700007A
:1035000000007041000070C170B504462DED0A8BBB
:1035100001212046D4ED240A94ED1B0A0CF0FCFF97
:1035200084ED580AD4ED240A94ED1B0A03212046A9
:103530000CF0F2FF84ED590AD4ED240A94ED1B0A35
:10354000022120460CF0E8FF84ED5A0AD4ED240A4B
:1035500094ED1B0A042120460CF0DEFF84ED5B0A8B
:10356000D4ED270A94ED1E0A012120460CF0D4FF69
:1035700084ED5C0AD4ED270A94ED1E0A032120464F
:103580000CF0CAFF84ED5D0AD4ED270A94ED1E0A03
:10359000022120460CF0C0FF84ED5E0AD4ED270A1C
:1035A00094ED1E0A042120460CF0B6FF84ED5F0A5C
:1035B000D4ED3B0A94ED3D1A70EE810AC4ED450A44
:1035C00094ED3C1AD4ED3E1A31EE211A84ED461AE0
:1035D00004F58065C5ED7D0A85ED871A10EE900A29
:1035E000F84ADFEDF91AF9499FEDF92A904202DD18
:1035F000C5ED7D1A05E010EE900A884201D985EDEF
:103600007D2A11EE100A904202DDC5ED871A05E011
:1036100011EE100A884201D985ED872AD4ED410ABE
:1036200094ED3F1A70EE810A94ED391A70EE812AFA
:10363000C4ED432AD4ED420A94ED401A70EE810A9B
:1036400094ED3A1A70EE811AC4ED441AD4ED4E0A84
:1036500094ED4C1A30EE812A84ED502AD4ED4F0AB5
:1036600094ED4D1A30EE811A84ED511AD4ED5A0AB8
:10367000F1EE600A62EEA00AC4ED490A94ED5B3AED
:1036800022EE833A84ED4A3AD4ED5E2A61EEA23A04
:10369000C4ED473AB1EE400A21EE804A84ED484A33
:1036A00094ED580A62EE001AC4ED561A94ED590AC8
:1036B000B1EE400A22EE002A84ED572A94ED5C0A0E
:1036C000B1EE400A61EE002AC4ED542A94ED5D0A81
:1036D00021EE001A84ED551A9FEDBE0ADFEDBE4AB9
:1036E000F4EEC00AF1EE10FA02DD84ED490A06E0BC
:1036F000F4EEE40AF1EE10FA01D2C4ED494AB4EE58
:10370000C03AF1EE10FA02DD84ED4A0A06E0B4EEAA
:10371000E43AF1EE10FA01D2C4ED4A4AF4EEC03AAE
:10372000F1EE10FA02DD84ED470A06E0F4EEE43A29
:10373000F1EE10FA01D2C4ED474AB4EEC04AF1EE00
:1037400010FA02DD84ED480A06E0B4EEE44AF1EE38
:1037500010FA01D2C4ED484A11EE901A9F4AA048CF
:10376000B2EE0E0AFAEE0E0A914202DD84ED560A1E
:1037700005E011EE901A814201D9C4ED560A12EE0D
:10378000101A914202DD84ED570A05E012EE101A7C
:10379000814201D9C4ED570A12EE901A914202DD1E
:1037A00084ED540A05E012EE901A814201D9C4ED6D
:1037B000540A11EE101A9FED8BAB9FED8CBBFEEE01
:1037C00000CA9FED8C9BB6EE00CA9FED8C8ADFEDA0
:1037D0008C8A914202DD84ED550A05E011EE101A43
:1037E000814201D9C4ED550A94ED490AD4ED560A37
:1037F00030EE200A85ED530A94ED4A0AD4ED570ABB
:1038000030EE200A85ED5D0A94ED540AD4ED470AA6
:1038100030EE600A85ED670A94ED550AD4ED480A4A
:1038200030EE600A85ED710AD4F83405406811F075
:1038300003F941EC100B09F0CBFB53EC1A2B51ECC4
:10384000100B10F09AFC04D885ED55CA85ED568A08
:103850001AE0D4F83405406811F0EEF841EC100B92
:1038600009F0B6FB9FED671B51EC100B53EC112BCD
:1038700010F0A8FA04D8C5ED558AC5ED56CA03E084
:10388000C5ED558A85ED568AD4F88405406811F057
:10389000D3F841EC100B09F09BFB53EC1B2B51ECC4
:1038A000100B10F08FFA04D8C5ED698A85ED6A8A8D
:1038B00018E0D4F88405406811F0BEF841EC100B14
:1038C00009F086FB53EC192B51EC100B10F055FC52
:1038D00004D885ED69CA85ED6A8A03E0C5ED698A79
:1038E00085ED6A8AD4F85C05406811F0A5F841ECD2
:1038F000100B09F06DFB53EC1B2B51EC100B10F06F
:1039000061FA04D8C5ED5F8AC5ED60CA18E0D4F845
:103910005C05406811F090F841EC100B09F058FB81
:1039200053EC192B51EC100B10F027FC04D885ED4B
:103930005FCA85ED608A03E0C5ED5F8A85ED608A28
:10394000D4F8AC05406811F077F841EC100B09F0A1
:103950003FFB53EC1A2B51EC100B10F00EFC04D86B
:1039600085ED73CA85ED748A18E0D4F8AC0540681B
:1039700011F062F841EC100B09F02AFB53EC192B03
:1039800051EC100B10F0F9FB04D8C5ED738AC5EDAE
:1039900074CA03E0C5ED738A85ED748A1B4AD5F8B5
:1039A0004C011B49904202D985ED538A03E08842BD
:1039B00001DDC5ED538AD5F8740190422AD985ED11
:1039C0005D8A2BE000FC7F4600FC7F4600FC7FC642
:1039D00000FC7FC60000FA440000FAC400007041F9
:1039E000000070C10000000000003E400000000028
:1039F00000003EC00000000000405040000048C3EE
:103A00000000484300000000004050C0000048C3D0
:103A100000004843884201DDC5ED5D8AD5F89C0170
:103A2000904202D985ED678A03E0884201DDC5ED49
:103A3000678AD5F8C401904204D985ED718ABDEC3E
:103A40000A8B70BD8842FADDC5ED718AF7E7000088
:103A500010B5124A506800011FD5114B114C4FF0A0
:103A60000061586B0068A04203D90E484C380160D1
:103A70000EE00A4CB834A04203D90A48503801601D
:103A800006E0064C5834A04201D9D16000E09160B4
:103A90001868016841F40071016010BD00600240C7
:103AA000E80F002058640240014801F0DBBE00002E
:103AB000C81400202DE9F05FFA48FB4AFA4DC06CAB
:103AC000FA4EF94F0068DFF8E4C3DFF8DC83DFF873
:103AD000DC93DFF8D4A3DFF8D4B3DFF8CCE3F34C06
:103AE000483D60361837D1140CF1180CA8F1300895
:103AF00009F178090AF1300A0BF1300BAEF1180E1A
:103B000090423ED9E84A543A1368A04201D120229B
:103B100035E0A84201D1202231E0B04201D120227B
:103B20002DE0B84201D1202229E0604501D10A46AA
:103B300025E0404501D10A4621E0484501D10A4629
:103B40001DE0504501D10A4619E0584502D14FF415
:103B5000001214E0704502D14FF400120FE0D34A76
:103B60009032904202D14FF4001208E0CE4A48321F
:103B7000904202D14FF4001201E04FF00062134076
:103B8000C3E0CA4AA83290423ED9C74A583A13689D
:103B9000A04201D1202235E0A84201D1202231E00B
:103BA000B04201D120222DE0B84201D1202229E0EB
:103BB000604501D10A4625E0404501D10A4621E091
:103BC000484501D10A461DE0504501D10A4619E099
:103BD000584502D14FF4001214E0704502D14FF461
:103BE00000120FE0B14A9032904202D14FF400121D
:103BF00008E0AD4A4832904202D14FF4001201E091
:103C00004FF00062134080E0A84A483290423ED90B
:103C1000A64A103A5368A04201D1202235E0A842BA
:103C200001D1202231E0B04201D120222DE0B84262
:103C300001D1202229E0604501D10A4625E0404516
:103C400001D10A4621E0484501D10A461DE0504510
:103C500001D10A4619E0584502D14FF4001214E090
:103C6000704502D14FF400120FE0904A903290421A
:103C700002D14FF4001208E08B4A4832904202D140
:103C80004FF4001201E04FF0006213403DE0874A1C
:103C9000103A1368A04201D1202235E0A84201D198
:103CA000202231E0B04201D120222DE0B84201D1E2
:103CB000202229E0604501D10A4625E0404501D196
:103CC0000A4621E0484501D10A461DE0504501D190
:103CD0000A4619E0584502D14FF4001214E070452D
:103CE00002D14FF400120FE0704A9032904202D19C
:103CF0004FF4001208E06C4A4832904202D14FF46F
:103D0000001201E04FF000621340002B72D0664AAF
:103D1000904235D9A04201D120212DE0A84201D105
:103D2000202129E0B04201D1202125E0B84201D173
:103D3000202121E060451FD040451DD048451BD0C3
:103D4000504519D0584502D14FF4001114E0704588
:103D500002D14FF400110FE054499031884202D152
:103D60004FF4001108E050494831884202D14FF425
:103D7000001101E04FF000614B484C380160ADE0AC
:103D80004A4AA832904236D9A04201D120212DE0E2
:103D9000A84201D1202129E0B04201D1202125E013
:103DA000B84201D1202121E060451FD040451DD0FF
:103DB00048451BD0504519D0584502D14FF4001149
:103DC00014E0704502D14FF400110FE037499031F3
:103DD000884202D14FF4001108E03349483188424B
:103DE00002D14FF4001101E04FF000612E4850382D
:103DF000016073E0B6E02D4A4832904235D9A042C6
:103E000001D120212DE0A84201D1202129E0B0429A
:103E100001D1202125E0B84201D1202121E06045D7
:103E20001FD040451DD048451BD0504519D058459E
:103E300002D14FF4001114E0704502D14FF400118B
:103E40000FE01A499031884202D14FF4001108E086
:103E500015494831884202D14FF4001101E04FF07A
:103E6000006112481038C16038E0A04201D1202121
:103E700031E0A84201D120212DE0B04201D1202122
:103E800029E0B84201D1202125E0604523D04045FA
:103E900021D048451FD050451DD0584508D14FF47A
:103EA000001118E090100020586402401060024099
:103EB000704502D14FF400110DE02B49884202D128
:103EC0004FF4001107E02949884202D14FF4001154
:103ED00001E04FF000612448A0388160244C207834
:103EE00080070CD5207820F002002070207840F068
:103EF00004002070012211461E4802F047F8607845
:103F00001D4D80070CD5607820F00200607060784D
:103F100040F00400607001221021284602F036F8BB
:103F2000A07880070CD5A07820F00200A070A078BF
:103F300040F00400A07001221021284602F026F86B
:103F40000CF034FC207840070CD5207820F00400D9
:103F50002070207840F0080020700848016841F087
:103F600001010160BDE8F09FA0600240A064024032
:103F7000340200200004024000000240103C0140D6
:103F8000014801F06FBC000028150020014801F035
:103F900069BC00000814002001680A4BCAB2103A3C
:103FA000A3FB02321209084B9B5CC365032A04D9A8
:103FB0006FF30901091D816502E06FF30901816555
:103FC000806D7047ABAAAAAA265C010801460020B2
:103FD0008A6A8B69002B0FD0B3F5005F1DD08AB3BE
:103FE000012A30D0022A2ED0032A04D1C96A11F046
:103FF000807F00D0012070471AB1012A07D0022A21
:10400000F9D1C96A11F0807FF5D001207047C96AE3
:10401000B1F1C07FFAD1012070475AB1012A0BD00B
:10402000022A07D0032AF7D1C96AB1F1C07FF3D1C0
:104030000120704701207047C96A11F0807FFAD0D3
:1040400001207047FFE7012070477047012001F011
:104050007BBE082001F078BE102001F075BE202044
:1040600001F072BE704700000022002905D001292E
:104070001AD002291BD04FF440720E490B6823F46A
:1040800040730B600B681A430A600A6822F0F8025A
:104090000A600A68022343EAC00010430860086807
:1040A00040F48030086070474FF48072E5E74FF4C9
:1040B0000072E2E7103C02401448016811F4007FEE
:1040C0000FD0016821F400710160016841F40061C2
:1040D0000160016821F400610160016841F4007130
:1040E0000160016811F4806F0FD0016821F48061D4
:1040F0000160016841F480510160016821F4805140
:104100000160016841F4806101607047003C024039
:1041100008490A6822F440720A600A6842F0040200
:104120000A600A684FF4803343EA002010430860B5
:1041300070470000103C0240064A136823F44073A5
:10414000136013681360136843F001031360017078
:1041500070470000103C02400B49D1F800C02CF41D
:10416000407CC1F800C0D1F800C04CF4407CC1F8DC
:1041700000C0D1F800C04CF0010CC1F800C00260D2
:10418000BFF36F8F43607047103C0240074A1368CB
:1041900023F440731360136843F48073136013684F
:1041A00043F001031360018070470000103C02409F
:1041B000074A136823F440731360136843F40073D1
:1041C0001360136843F0010313600160704700003F
:1041D000103C02401A49086810F0100F194805D029
:1041E000C26942F01002C26110220A600A6812F02D
:1041F000200F05D0C26942F00802C26120220A6085
:104200000A6812F0400F05D0C26942F00402C26190
:1042100040220A600A6812F0800F05D0C26942F09D
:104220000202C26180220A600A6812F0020F05D001
:10423000C26942F02002C26102200860704700009B
:104240000C3C02409030002070B504461449002018
:10425000C86101F0A3FE0646124D286810F4803FA5
:104260000ED0B4F1FF3F07D024B101F097FE801BC0
:10427000A04201D9032070BD286810F4803FF0D11E
:10428000286810F0010F01D001202860286810F084
:10429000F20F03D0FFF79EFF012070BD002070BD1C
:1042A000903000200C3C0240F3B504462DED040B89
:1042B0000F462DED108B83B0DFEDFE0A70EE201A55
:1042C0009FEDFD0A61EE801AC1EEA08A30EEC11AA0
:1042D00021EE000A80EE208A18EE900A10F0ACFB66
:1042E00041EC100B08F010FE51EC100B0FF07CF8B5
:1042F0000FEE100A18EE900A10F09EFB41EC100B26
:1043000008F072FE51EC100B0FF06EF80EEE100A72
:1043100018EE100A10F090FB41EC100B08F0F4FDC1
:1043200051EC100B0FF060F80FEE900A18EE100A27
:1043300010F082FB41EC100B08F056FE51EC100B14
:104340000FF052F80EEE900A9FEDDCDA9FEDDCAA3A
:104350000FEE0DAADFEDDBDA4FEECDDA6EEE0DAA31
:104360006EEE8D0ACDED020A3DEECA0ADDED020ABF
:1043700020EE001A70EEEA0A00EEA01ADFEDD21A63
:1043800060EE219A20EEA1BA9FEDD00A71EE000AEC
:1043900030EEC09A39EE890A10EE100A10F04CFB8C
:1043A00029EEA90A41EC180B0BEE0B0A09EE490A9B
:1043B00010EE100A10F040FB41EC100B08F078FEF4
:1043C000B0EE409AF0EE609A1BEE100A10F034FB4B
:1043D00053EC192B0FF06AF953EC182B0FF098FAE5
:1043E00041EC100B08F0FCFA9FEDB91B51EC100BDF
:1043F00053EC112B0FF022FD0EF0F6FF08EE100A21
:1044000018EE100A10F018FB41EC100B08F07CFDC0
:104410009FEDB1BB51EC100B53EC1B2B0FF00EFDBD
:1044200041EC190B1AEE100A10F006FB53EC192B95
:104430000FF03CF90EF0D8FF09EE900A18EE100AC2
:1044400010F0FAFA41EC100B08F0CEFD53EC1B2BE8
:1044500051EC100B0FF0F2FC41EC1C0B1AEE900A21
:1044600010F0EAFA53EC1C2B0FF020F90EF0BCFF11
:1044700008EE900A29EEA90A08EEA80A10EE100A22
:1044800010F0DAFA41EC100B08F012FE51EC100BB0
:104490000EF0AAFF054689EEA80A10EE100A10F0E9
:1044A000CBFA41EC100B08F09BFA51EC100B0EF01C
:1044B0009BFF09EE100ADDED140A9FED890A60EEFC
:1044C000800A20EE8EEADDED140A60EE8D0A20EE01
:1044D0008FFADDED160A20EE800A20EE2E0A8DED11
:1044E000010A9DED160A20EE0D0A60EE2FFADDEDB1
:1044F000020A39EEED1A78EEE00A80EE810A10EE3B
:10450000100A10F099FA41EC100B08F069FA51EC1E
:10451000100B0EF069FF0DEE100A7DEE48EA1EEE5C
:10452000900A10F089FA41EC100B08F05DFD53EC95
:104530001B2B51EC100B0FF081FC41EC1B0B1DEE03
:10454000100A10F079FA41EC100B08F04DFDB0EEB6
:1045500040CA3FEECF0AF0EE60CA10EE100A10F02B
:104560006BFA53EC1C2B0FF069FC41EC1C0B1DEE9D
:10457000100A10F061FA41EC100B08F0C5FCB0EE27
:1045800040DA9DED010AF0EE60DA30EE4E0A10EEF0
:10459000100A10F051FA53EC1D2B0FF04FFC53ECA6
:1045A0001C2B0FF083F853EC1B2B0FF0B1F90EF01E
:1045B0001BFF0CEE100A1EEE900A10F03DFA41ECC3
:1045C000100B08F011FD18EE100A10F035FA41EC4E
:1045D000100B08F009FD18EE100A10F02DFA41EC4E
:1045E000100B08F091FC18EE100A10F025FA41ECBF
:1045F000100B08F0F9FCB0EE40BA9FED3A0AF0EE6D
:1046000060BA2CEE00CA1CEE100A10F015FA53EC3A
:104610001B2B0FF013FC41EC1B0B1EEE100A10F0CD
:104620000BFA53EC1B2B0FF005FF0EF0DDFE0646D8
:1046300018EE100A10F000FA41EC100B08F064FCC0
:10464000B0EE40BAF0EE60BA1CEE100A10F0F4F9C9
:1046500053EC1B2B0FF0F2FB41EC1B0B1FEE100A6F
:1046600010F0EAF953EC1B2B0FF020F80EF0BCFE13
:1046700010F0E2F941EC1B0B19EE100A10F0DCF916
:1046800041EC100B08F040FC53EC1B2B51EC100BD1
:104690000FF0D4FB41EC1B0B304610F0CDF941EC90
:1046A0001C0B19EE100A10F0C7F941EC100B08F0C2
:1046B0008FFC19E000003443DB0F49409A99193E02
:1046C0009A9999BD9A99993D713D0A3F994C953DAA
:1046D000000000000000004000000020AE47D13F75
:1046E0009A9919BE713D8A3E08F07EFC51EC100B80
:1046F0000EF06EFE53EC1C2B0FF0A0FB53EC1B2BAB
:104700000FF098FE9FED141B53EC112B0FF096FB4E
:104710000EF06AFE00EE100A9FB1E56684ED249A61
:10472000C4ED2C9AC4ED2D8A84ED2EAAC4ED2FAAD7
:1047300084ED308A84ED2A0A03B0BDEC108B06B0FC
:10474000F0BDA567F1EE490AC4ED270AB1EE400AB3
:1047500084ED2B0AF0E70000000000000000084094
:1047600038B44FF0000CCDF800C090F83C20012A7E
:104770001BD0012280F83C200A680724092A17D997
:104780000368DD680A3A02EB420204FA02F225EA03
:104790000202DA600A788B680A3A02EB420293401E
:1047A0000268D4682343D36014E038BC0220704709
:1047B00003681D6902EB420204FA02F225EA0202D2
:1047C0001A610A788B6802EB42029340026814690E
:1047D000234313614A681F24072A15D203685D6BBF
:1047E000521E02EB820204FA02F225EA02025A6326
:1047F0000A8893B20A79521E02EB82029340026841
:10480000546B234353632CE00D2A15D203681D6BB0
:10481000D21F02EB820204FA02F225EA02021A63B4
:104820000A8893B20A79D21F02EB8202934002688F
:10483000146B2343136314E00368DD6A0D3A02EB43
:10484000820204FA02F225EA0202DA620A8893B2CC
:104850000A790D3A02EB820293400268D46A23433C
:10486000D362184A184B04689C4206D10C68122C7B
:1048700003D1546844F48004546004689C421CD101
:104880000B68102B01D0112B17D1536843F4000390
:1048900053600968102910D10C490D4A0968B1FB11
:1048A000F2F101EB810149000091009929B10099D1
:1048B000491E009100990029F9D180F83CC038BC0C
:1048C00000207047002301400020014030000020FC
:1048D00040420F000068C06C704770B50446002568
:1048E000002C03D0206C002610B107E0012070BD21
:1048F000204600F01DF8666484F83C60206C10F0DF
:10490000100F04D0012584F83C60284670BD206C4F
:1049100020F4885040F0020020642046FDF762FC3D
:104920006664206C20F0020040F001002064EAE799
:1049300010B586B00446142101A8FBF753FF174BAE
:10494000206800221649984209D1086840F4807016
:104950000860086800F48070009006B010BD114B2C
:104960009842FAD1086840F480600860086800F452
:10497000806000900A481438016841F0200101600D
:10498000006800F0200000901815019003200290AC
:10499000039201A9044801F0E3F9DEE70020014099
:1049A0004438024000220140001402402DE9F04149
:1049B00004460D46206881684FF0000711F4806FAF
:1049C0000CD0806810F4807F08D0206C40F020006C
:1049D000206484F83C700120BDE8F08101F0DEFA2B
:1049E00006462068006810F0020F12D1B5F1FF3FB3
:1049F0000AD025B101F0D2FA801BA84204D9206860
:104A0000006810F0020F12D02068006810F0020F4A
:104A1000ECD021686FF012000860206C40F4007048
:104A200020642068816811F0405F09D01EE0206C8E
:104A300040F00400206484F83C700320BDE8F0815D
:104A4000217E99B9C16A11F4700F03D0806810F407
:104A5000806F0BD1206C20F480702064206C10F4E7
:104A6000805F03D1206C40F0010020640020BDE88D
:104A7000F081000081B00022009290F83C100129E2
:104A800008D0012180F83C1001688B6813F0010FF9
:104A900003D016E0022001B070478B6843F0010399
:104AA0008B603949394B0968B1FBF3F101EB4101E6
:104AB0000091009929B10099491E0091009900299F
:104AC000F9D101688B6813F0010F52D0036C23F009
:104AD000010323F4C06343F4807303644B6813F44D
:104AE000806F05D0036C23F4005343F480530364B8
:104AF000036C13F4805F04D0436C23F0060343641B
:104B000000E0426480F83C20214A6FF022030B60F1
:104B1000516811F01F0F1F4907D00068884230D13B
:104B2000816811F0405F1FD02BE00068884212D0EE
:104B3000194A904204D1D1F8042312F01F0F0AD071
:104B4000A0F18042B2F591321BD1D1F8041301F0EB
:104B50001F01102915D2816811F0405F11D18168C1
:104B600041F0804181600CE0816841F080418160CA
:104B700007E0016C41F010010164416C41F001015A
:104B80004164002001B070473000002040420F0017
:104B900000230140002001400021014090F8202026
:104BA000012A07D0022A05D0416A41F480214162DE
:104BB000012070470068426911434161002070473D
:104BC00070B490F82040D0F800C0DCF808C0012C88
:104BD00008D0022C06D0416A41F48021416270BCA9
:104BE000012070470CF080640CF000652C4302D16A
:104BF0001CF0805F55D0CCF3016C012404FA0CF456
:104C00001C608B684FF4C0749BB1CD6804EB0C162C
:104C10002B434D6843EAC5030568AB514FF4C2739B
:104C2000066803EB0C130D69F550097D012909D0C5
:104C30000DE00D88CB6804EB0C1643EA455305687C
:104C4000AB51EBE70168CD5845F48075CD50117933
:104C5000D379557941EA036193791B0443EA05232B
:104C600019434FF4C675036805EB0C1559511178BB
:104C7000D37841EA0361937852781B0443EA022215
:104C800011434FF4C473026803EB0C13D150016855
:104C900004EB0C100A5842F001020A5070BC0020CC
:104CA0007047416A41F40011416270BC01207047B5
:104CB00090F82020012A07D0022A05D0416A41F449
:104CC00080214162012070474248D0F8002242F022
:104CD0000102C0F80022D0F8002222F47C52C0F871
:104CE0000022D0F800224B6A42EA0322C0F80022D8
:104CF0000A7D012302F01F0203FA02F2D0F81C32EF
:104D00009343C0F81C32CB69D3B9D0F80C3293432B
:104D1000C0F80C32B1F80CC04B686CF31F43D1F8EB
:104D200014C000EBCC0CCCF84032B1F808C00B68D2
:104D30006CF31F43D1F814C000EBCC0CCCF8443218
:104D4000CB69012B1AD1D0F80C321343C0F80C32C6
:104D5000B1F800C04B686CF31F43D1F814C000EBEE
:104D6000CC0CCCF84032B1F808C0CB686CF31F43D0
:104D7000D1F814C000EBCC0CCCF844328B697BB179
:104D8000D0F804321343C0F804320B6973B1D0F881
:104D900014321343C0F81432096A01290CD010E010
:104DA000D0F804329343C0F80432EEE7D0F814325E
:104DB0009343C0F81432EFE7D0F81C121143C0F847
:104DC0001C12D0F8001221F00101C0F800120020DE
:104DD0007047000000640040704730B490F820C075
:104DE000BCF1010F09D0BCF1020F06D0416A41F4B9
:104DF0008021416230BC0120704739B1D0F800C039
:104E0000DCF810C01CF0030F33D006E0D0F800C06F
:104E1000DCF80CC01CF0030F24D04FF4D87C0468DD
:104E20000CEB011C54F80C4004F0040494603CB3F7
:104E3000046854F80C40E4085460046854F80CC04A
:104E40000CF0020CC2F80CC04FF4DA7C04680CEBD6
:104E5000011C54F80C5005F00F05082D16D308243A
:104E6000146118E0416A41F40011416230BC012034
:104E70007047416A41F40011416230BC0120704723
:104E8000046854F80C40640D1460D6E754F80C40E4
:104E900004F00F041461046854F80C40C4F30724B0
:104EA0009461046854F80CC04FEA1C4CC2F814C05A
:104EB0004FF4DC72D0F800C002EB01125CF802C0C3
:104EC00083F800C0D0F800C05CF802C04FEA1C2C88
:104ED00083F801C0D0F800C05CF802C04FEA1C4C57
:104EE00083F802C0D0F800C05CF80220120EDA701D
:104EF0004FF4DE72D0F800C002EB01125CF802C081
:104F000083F804C0D0F800C05CF802C04FEA1C2C43
:104F100083F805C0D0F800C05CF802C04FEA1C4C12
:104F200083F806C0D0F800C05CF80220120EDA71D7
:104F300039B10068016941F02001016130BC0020F5
:104F400070470068C16841F02001C160F6E72DE9B3
:104F5000F05F0546002428684669D0F80490876809
:104F6000D0F80CA0D0F810B0D0F8188016F0010FCF
:104F700054D017F0010F17D00121816017F0020FF4
:104F800003D0284600F004FC0EE017F0040F02D016
:104F90004FF4006408E017F0080F02D04FF480547B
:104FA00002E0284600F0F3FB17F4807F19D029684F
:104FB0004FF48070886017F4007F03D0284600F01B
:104FC000E9FB0EE017F4806F02D044F4005408E0CF
:104FD00017F4006F02D044F4804402E0284600F049
:104FE000D8FB17F4803F19D029684FF480308860CF
:104FF00017F4003F03D0284600F0CEFB0EE017F474
:10500000802F02D044F4004408E017F4002F02D0AF
:1050100044F4803402E0284600F0BDFB16F0080F8F
:1050200007D01AF0100F04D044F40074296810203F
:10503000C86016F0040F4FF0080707D01AF0080FE9
:1050400004D02868C760284600F0D0F916F0020F97
:1050500007D02868C06810F0030F02D0284600F07F
:10506000C7F916F0400F07D01BF0100F04D044F41E
:10507000806429681020086116F0200F07D01BF00B
:10508000080F04D028680761284600F04BFB16F093
:10509000100F07D02868006910F0030F02D02846CF
:1050A00000F041FB16F4003F08D019F0100F05D0B6
:1050B000296810204860284600F036FB16F4803F2F
:1050C00007D019F0080F04D028684760284600F080
:1050D00064FB16F4004F4AD019F0040F44D016F4C4
:1050E000807F04D018F0010F01D044F0010416F4C1
:1050F000007F04D018F0020F01D044F0020416F42F
:10510000806F04D018F0040F01D044F0040416F4AA
:10511000006F29D018F0700F26D008F070004028DA
:1051200015D006DC102809D020280AD0302816D146
:105130000AE050280ED0602811D10EE044F0080497
:105140000DE044F010040AE044F0200407E044F0CD
:10515000400404E044F0800401E044F480742868D2
:10516000816921F070018161296804204860002C68
:1051700005D0686A204368622846FFF72DFEBDE827
:10518000F09F70B50446002C03D094F8200010B1B5
:1051900004E0012070BD204600F0A8F820680168F6
:1051A00041F00101016000F0F9FE05462068406809
:1051B0004FF0050610F0010F11D100F0EFFE401B7B
:1051C0000A2807D9606A40F40030606284F82060E1
:1051D000012070BD2068406810F0010FEDD02068FC
:1051E000016821F00201016000F0D8FE0546206848
:1051F000406810F0020F11D000F0D0FE401B0A28CA
:1052000007D9606A40F40030606284F820600120B1
:1052100070BD2068406810F0020FEDD1207E01289B
:105220003FD02068016821F080010160607E012884
:105230003DD02068016821F040010160A07E012876
:105240003BD02068016821F020010160E07E012848
:1052500039D02068016841F010010160207F0128E9
:1052600037D02068016821F008010160607F0128C3
:1052700035D02068016821F004010160E168A06870
:10528000626908432169114308436168491E084364
:105290002168C86100206062012084F8200000209D
:1052A00070BD2068016841F080010160BEE72068A0
:1052B000016841F040010160C0E72068016841F0E9
:1052C00020010160C2E72068016821F0100101603F
:1052D000C4E72068016841F008010160C6E7206862
:1052E000016841F004010160C8E700002DE9F041C8
:1052F00086B00446142101A8FBF774FA364B374AEE
:10530000DFF8D08018682168344C03260227401C3F
:10531000103200254FF0090C414527D118600128B3
:1053200007D1106840F000701060106800F0007045
:105330000090206840F008002060206800F008001D
:1053400000900196029703950496CDF814C001A928
:10535000234800F005FD00220621142001F0D8FAB0
:10536000142001F0C7FA06B0BDE8F081DFF87480C0
:105370004145F8D1116841F080611160116801F078
:10538000806100911860012807D1106840F000701A
:105390001060106800F000700090206840F002007B
:1053A0002060206800F002000090602001900297C9
:1053B00003950496CDF814C001A90B4800F0D0FC69
:1053C00000220621402001F0A3FA402001F092FAC9
:1053D000C9E70000006400402C0000203038024083
:1053E000000C0240006800400004024070470000CA
:1053F00030B52DED028B89B0BC4988427BD16B461C
:1054000002AA0021FFF7E9FC9DF800009FEDB88A91
:10541000B84C012805D0022803D0032801D0042865
:105420005AD1401EC0B22070B34D05EB001090ED74
:10543000010A80ED000A9DF802009DF8011040EA83
:1054400001201021DFEDAD0A9FEDAD0A0CF030FE1A
:10545000DFEDAC0A207820EE200A05EB001080ED8D
:10546000010A10EE101AA84A914203DD30EE480AF4
:1054700080ED010A90ED010AA44A10EE101A914243
:1054800003D930EE080A80ED010A9DF803009DF86B
:105490000410000140EA11100C21DFED9D0A9FED80
:1054A0009D0A0CF005FE207805EB001080ED020A45
:1054B0009DF804109DF8050001F00F0140EA01205D
:1054C0000C21F3EE020ABBEE020A0CF0F1FD20788B
:1054D00005EB001080ED030A029840F20322A0F2CF
:1054E000032190424AD011DC8349A0F580704138F5
:1054F00001F1400100E0D7E0DFED870A70D001281C
:105500006FD0C0283AD0C12834D137E0012935D036
:10551000022933D0042931D00E292BD1BDF8000047
:1055200000EE100AF8EE400A9FED7C0A724880EE09
:10553000801A943080ED001ABDF8021000EE901A27
:10554000F8EE600A80EE801A80ED011ABDF80410B2
:1055500000EE901AF8EE600A80EE801A80ED021AD2
:10556000BDF8061000EE901AF8EE600A80EE801A80
:1055700080ED031A09B0BDEC028B30BD0298401ECD
:10558000C2B262705C4C02EB82018C3C04EB810085
:1055900034F8213003819DF801309DF8005043EA32
:1055A000052324F821309DF803309DF8025043EA8A
:1055B000052343809DF805309DF8045043EA0523F8
:1055C00083809DF80630837134F82130B0F908509B
:1055D0005B1BB3F5805F05DD03695B1E036107E0BC
:1055E0001AE03DE013F5805F02DA03695B1C03619A
:1055F00003694FF4B47534F821106B43694303EB2E
:10560000513100EE101AB8EEC00A80ED030A521CA8
:10561000D0B20AF037FCADE79DF8010008709DF8A4
:1056200002009DF8032040EA022048809DF8040013
:105630009DF8052040EA022088809DF806009DF82C
:10564000072040EA0220C880088100EE100AB8EE68
:10565000400A20EE200A20EE080A81ED030A89E7BD
:105660009DF8010008749DF802009DF8032040EAAF
:10567000022048829DF804009DF8052040EA02209F
:1056800088829DF806009DF8072040EA0220C88223
:10569000088300EE100AB8EE400A20EE200A20EE41
:1056A000080A81ED070A65E71D498842B3D16B46B8
:1056B00002AA0021FFF791FB0298012809D00228D5
:1056C0000BD003280DD00428A5D16846FDF7E8FBD0
:1056D00050E76846FDF778FB4CE76846FDF79AFB14
:1056E00048E76846FDF7BCFB44E70000440F002094
:1056F0000000B443AC0000206C1700200000BF4243
:105700000000BFC20000704200003443000034C3F8
:1057100000003442000034C2000080370000C8425C
:105720006C0F002070477047704770B5044694F8BE
:105730002000012805D0606A40F40020606201204A
:1057400070BD022084F820002068016821F001016A
:10575000016000F023FC05462068406810F0010F4E
:1057600012D000F01BFC401B0A2808D9606A40F4E4
:1057700000306062052084F82000012070BD2068A0
:10578000406810F0010FECD10020606270BD7047DE
:105790007047704770477047704770472DE9F04178
:1057A0000446A66D00F0FAFB054694F83500002784
:1057B000022806D08020606584F834700120BDE89E
:1057C000F0812068016821F01601016020684169BC
:1057D00021F080014161206C08B9A06C20B12068E3
:1057E000016821F0080101602068016821F00101D1
:1057F00001602068006810F0010F12D000F0CEFBAD
:10580000401B052808D920206065032084F8350056
:1058100084F83470BDE8F0812068006810F0010F52
:10582000ECD194F85C003F2101FA00F0B060012057
:1058300084F8350084F834700020BDE8F08190F8D9
:105840003510022903D080214165012070470521D0
:1058500080F835100068016821F001010160002026
:10586000704700002DE9F84304464FF00008CDF8DA
:10587000008076484FF416510068B0FBF1F7A56D33
:105880002E6894F85C00082101FA00F0304211D033
:105890002068026812F0040F0CD0026822F00402A3
:1058A000026094F85C0001FA00F0A860606D40F0BE
:1058B0000100606594F85C004FF0010909FA00F0FE
:1058C000304209D02168496911F0800F04D0A860E6
:1058D000606D40F00200606594F85C100420884020
:1058E000304209D02168096811F0020F04D0A86085
:1058F000606D40F00400606594F85C1010208840F2
:10590000304224D02168096811F0080F1FD0A86028
:105910002068016811F4802F0DD0006810F4002F6A
:1059200004D0A16C99B12046884710E0216C71B178
:10593000204688470BE0016811F4807F03D101689D
:1059400021F008010160216C09B12046884794F8D4
:105950005C1020208840304251D02168096811F045
:10596000100F4CD0A86094F8350005280DD02068A1
:10597000016811F4802F32D0006810F4002F29D074
:10598000E16B59B32046884739E02068016821F06F
:10599000160101602068416921F080014161206C9D
:1059A00008B9A06C20B12068016821F008010160ED
:1059B00094F85C003F2101FA00F0A86084F835906B
:1059C00084F83480216D00293ED001B02046BDE826
:1059D000F0430847616C09B1204688470FE0016831
:1059E00011F4807F07D1016821F01001016084F873
:1059F000359084F83480E16B09B120468847606DAA
:105A0000002821D0606D10F0010F15D0052084F81A
:105A100035002068016821F0010101600098401CF8
:105A20000090B84204D82068006810F0010FF5D14A
:105A300084F8359084F83480E16C002904D001B0FA
:105A40002046BDE8F0430847BDE8F8833000002059
:105A50002DE9F041044600F0A1FA0546DCB1022030
:105A600084F83500002684F834602068016821F04D
:105A7000010101602068006810F0010F13D000F0F0
:105A80008DFA401B052809D920206065032084F881
:105A90003500BDE8F0810120BDE8F0812068006894
:105AA00010F0010FEBD121680868234A1040A36869
:105AB0006268D4F810C01A43E36843EA0C031A433F
:105AC00063691A43A3691A43E3691A43236A1A43B1
:105AD0001043626A042A03D1236BE26A1A4310431B
