:020000040800F2
:1000000038DD0020E5030008B9AF00084D91000875
:1000100091AE00083736000861E0000800000000DB
:1000200000000000000000000000000025030008A0
:100030002F4D000800000000810300088DD2000849
:10004000FF030008FF030008FF030008FF03000888
:10005000FF030008FF030008314D0008FF030008FC
:10006000FF030008374D00083D4D0008FF0300085E
:10007000FF030008FF030008FF030008FF03000858
:10008000FF030008FF030008FF030008FF03000848
:1000900039360008FF030008FF030008434D00083D
:1000A000FF030008FF030008FF030008FF03000828
:1000B000FF030008FF030008FF030008FF03000818
:1000C000FF030008FF030008FF030008FF03000808
:1000D000FF030008C1DE0008FF030008CDDE0008B2
:1000E000FF030008FF030008FF030008FF030008E8
:1000F000FF030008FF030008FF030008354700085E
:10010000FF030008FF030008FF030008FF030008C7
:10011000FF030008FF030008FF030008FF030008B7
:10012000FF0300088D47000899470008FF030008F7
:10013000FF030008FF030008FF030008FF03000897
:1001400045360008FF030008FF030008FF0300080E
:10015000FF030008654C0008714C00089DDF000893
:10016000FF030008FF030008FF030008FF03000867
:10017000FF030008FF030008FF0300080000000061
:10018000FF030008FF03000800F002F800F0BAF8CF
:100190000AA090E8000C82448344AAF10107DA45E2
:1001A00001D100F0AFF8AFF2090EBAE80F0013F07A
:1001B000010F18BFFB1A43F0010318470C9101000F
:1001C0002C91010010F8013B0A4413F0030408BF0E
:1001D00010F8014B1D1108BF10F8015B641E05D01B
:1001E00010F8016B641E01F8016BF9D1002D15D0D8
:1001F00010F8014B03F00C030C2BA1EB04040ABF15
:1002000010F8013BA4EB8314A4EB032405F10103D4
:1002100014F8016B5B1E01F8016BF9D5914238BFF0
:1002200010F8013BD1D3704700230024002500269D
:10023000103A28BF78C1FBD8520728BF30C148BF49
:100240000B6070476E2901F01981702901F05B8203
:10025000662917F08D81652917F08A81672917F0C3
:100260008781612917F0868103681B0A28BF41F046
:100270008001692901F0C680642901F0C3807529D5
:1002800001F0C0806F2901F0E881782901F0278210
:10029000E92901F08381E42901F08081F52901F049
:1002A0007D81EF2901F0E581F82901F026820368BC
:1002B000DB0928BF41F08001632901F063877329BE
:1002C00001F06887E32901F07387F32901F078874B
:1002D000002070471FB517F093F89DE8030000F069
:1002E000EDFF01F0C7FF04000020002115F04EFCD7
:1002F000401C60600020002115F032FCE0601FBD52
:1003000010B510BD01F088FF1146FFF7E3FF12F0B2
:100310001CFE02F065F803B4FFF7F2FF03BC02F025
:100320009DF800002C4B19680868B0E8F04F80F386
:100330000988BFF36F8F4FF0000080F3118870477A
:100340000000000008480068006880F308884FF04B
:10035000000080F3148862B661B6BFF34F8FBFF31D
:100360006F8F00DF00BF00BF08ED00E0DFF80C007A
:10037000016841F470010160704700BF88ED00E042
:10038000EFF30980BFF36F8F134B1A681EF0100F45
:1003900008BF20ED108A20E9F04F106009B44FF03B
:1003A000500080F31188BFF34F8FBFF36F8F14F0AD
:1003B000C7FD4FF0000080F3118809BC1968086878
:1003C000B0E8F04F1EF0100F08BFB0EC108A80F3B9
:1003D0000988BFF36F8F704734070020EFF3058063
:1003E000704700000948804709480047FEE7FEE7DC
:1003F000FEE7FEE7FEE7FEE7FEE7FEE7FEE7FEE7D5
:1004000004480549054A064B7047000059D30008C7
:1004100089010008389D002038DD002038BD00200B
:1004200038BD00209FED1A1AF5EE000A40EE010AD1
:10043000BDEEE00AF5EEC00A10EE100AF1EE10FA79
:1004400038BF401E00EE100A1349F7EE001AB8EE4E
:10045000C00A30EEC00ADFED0F0A20EE200AFCEEE3
:10046000C00A10EE900AC0F3080000EE900A01EBFB
:100470008000F8EE600A90ED011A70EE600A90EDCF
:10048000000A71EEE01A21EE800A00EE810A704740
:1004900083F9223E0000004468870108DFED190A55
:1004A000B5EEC00A60EE200ABDEEE01A11EE100AA9
:1004B000F1EE10FA38BF401E00EE100A1349F7EEB5
:1004C000001AB8EEC00A30EEC00ADFED0F0A60EE87
:1004D000200ABCEEE00A10EE100AC0F3080000EE9D
:1004E000100A01EB8000B8EE400A90ED011A70EEA0
:1004F000C00A90ED000A71EEE01A21EE800A00EECB
:10050000810A704783F9223E000000446887010891
:1005100070B405880E884468D1F804C05368B542A9
:1005200008D140884988884201BF11888D4251888E
:10053000884203D070BC6FF00200704705FB00F1E9
:10054000880827D094ED001ADCED000A94ED010A2A
:10055000DCED011A31EE201AD4ED020A70EE211AF8
:100560009CED020A83ED001AC3ED011A94ED031A03
:10057000DCED031A30EE800A401E71EE210A83ED95
:10058000020A04F11004C3ED030A03F110030CF195
:10059000100CD7D111F0030030D0B0F1004F30D2A1
:1005A00000282BDD211F1B1FACF1040210F0010FEE
:1005B0000AD091ED010AD2ED010A091D121D30EE9B
:1005C000200A83ED010A1B1D400817D091ED010A96
:1005D000D2ED010A401E30EE200A83ED010A91EDB2
:1005E000020AD2ED020A01F1080102F1080230EE1E
:1005F000200A83ED020A03F10803E7D170BC002052
:100600007047B4EC010A401EFCEC010A30EE200AEF
:10061000A3EC010AF5D1F1E7018042804360704705
:100620002DE9F34F84B00498406800904868019029
:100630000498B0F800E04588DFEDFE0A0020029043
:10064000B0EE600AAE4506D108884988884204BFEA
:100650007146864504D06FF0020006B0BDE8F08F09
:1006600001985FEA010C18BFB7EE001A3DD000BF39
:10067000BEEB0C0117D0B1F1004F80F01F820029B2
:1006800011DD021F11F0010F1CBFC2ED010A121D86
:100690004B1006D0C2ED010AC2ED020A08325B1E01
:1006A000F8D100EB8100BCF10102A0EC011A19D0D5
:1006B000B2F1004F80F00882002A13DD031F12F010
:1006C000010F1CBFC3ED010A1B1D511008D000BF54
:1006D000C3ED010AC3ED020A491E03F10803F7D175
:1006E00000EB8200BCF1010CC2D14FF00008039571
:1006F000002D14BFB0EE602A002000F0BF8100BFC3
:10070000009908FB05F001EB800B0199DBED002A55
:1007100001EB80000346F0EE421AC64552D9AEEB1B
:100720000802ABEB850112F0010F17D001EB850138
:1007300091ED000AB5EEC00AF1EE10FA07DDB4EE55
:10074000E10AF1EE10FA09DDF0EE401A06E0B1EE32
:10075000400AF4EEC01AF1EE10FAF5D3521031D07F
:1007600001EB850C9CED000AB5EEC00AF1EE10FA23
:1007700005DDB4EEE10AF1EE10FA09DD06E0B1EEB6
:10078000400AF4EEC01AF1EE10FA01D2F0EE401A6F
:1007900001EBC50191ED000AB5EEC00AF1EE10FAC9
:1007A00005DDB4EEE10AF1EE10FA09DD06E0B1EE86
:1007B000400AF4EEC01AF1EE10FA01D2F0EE401A3F
:1007C000521ECDD1F5EEC01AF1EE10FA00F0738191
:1007D000F5EEC02A0126F1EE10FA0099D4BFB1EE71
:1007E000620AB0EE620AB4EE610AF1EE10FA1CBFC2
:1007F000AEEB0802B2F1010C47D005FB08F201EBA9
:10080000820292ED001A00BFB0EE410A05FB06F429
:10081000B5EEC00A00EB8404F1EE10FACCBFF0EEA6
:10082000400AF1EE400AF4EE610AF1EE10FA28D126
:10083000B5EB080C11D0BCF1004F7DD2BCF1000F1C
:100840000BDD00BF92ED000AD1ED000ABCF1010CF6
:10085000E2EC010AA1EC010AF4D129000ED0B1F1B9
:10086000004F6AD2002909DD94ED000AD0ED000A9C
:10087000491EE4EC010AA0EC010AF5D10120029026
:100880000BE0761CBCF1010CBED10298012804D00B
:10089000F5EEC02AF1EE10FA7ED09BED000AB5EB22
:1008A00008009A465946064622D0B0F1004F74D24D
:1008B00000281DDD091F10F0010F06D0F0EE400AE0
:1008C00080EEA01A81ED011A091D401010D000BF62
:1008D000D1ED010A401E80EE801A81ED011A91EDE2
:1008E000021AC1EE000AC1ED020A01F10801EFD1BE
:1008F000280026D0B0F1004F7ED2002821DDAAF1D9
:10090000040110F0010F06D0D1ED010A80EE801A2B
:1009100081ED011A091D401013D000BFD1ED010A6D
:10092000401E80EE801A81ED011AD1ED020A80EEA0
:10093000801A81ED021A01E0CBE0D6E001F1080156
:10094000ECD1DDE900124FF000095FEA0E0773D029
:10095000C14504BF01EB860102EB850274D091ED25
:10096000000ADC465046330035D01C46B6F1004F35
:100970007ED2002C2FDD0B1FABF1040C16F0010F03
:100980000FD0F0EE400ADCED011AB0EE601A00EE76
:10099000E11A83ED011A01E08DE0B1E01B1D0CF1BD
:1009A000040C741015D000BFD3ED010A9CED011AA0
:1009B00040EE410AC3ED010AD3ED020A9CED021A92
:1009C0000CF1080C40EE410AC3ED020A0833641E24
:1009D000EAD101EB86012B0036D0B3F1004F72D281
:1009E000002B31DDA2F1040CAAF1040013F0010F79
:1009F0000CD0DCED010A00E08BE090ED011A001D47
:100A000040EE410ACCED010A0CF1040C5C1019D047
:100A1000DCED010A90ED011A40EE410ACCED010A2D
:100A2000DCED020A90ED021A083040EE410ACCEDEE
:100A3000020A03E0000000000DE005E0641E0CF176
:100A4000080CE5D102EB830201EB88017F1E09F15E
:100A500001097FF47DAF009808F10108001D0090A6
:100A60000398401E03907FF44BAE0299012900E0E9
:100A700058E004BF06B0BDE8F08F00BFB5EEC00A75
:100A8000F1EE10FA7FF4E9AD04990EFB05F3002BAB
:100A90004A684FF000010BD902EB810C9CED000A73
:100AA000B5EEC00AF1EE10FA02D1491C8B42F3D820
:100AB0008B427FF4D2AD6FF00400CEE5E0EC010A8A
:100AC000491EFBD1EFE538E0E0EC010A521EFBD1F4
:100AD00008E692ED000AD1ED000ABCF1010CE2EC4F
:100AE000010AA1EC010AF4D1B7E694ED000AD0EDB9
:100AF000000A491EE4EC010AA0EC010AF5D1BDE6AA
:100B0000D1ED000A401E80EE801AA1EC011AF7D147
:100B1000EEE6D3ED000A401E80EE801AA3EC011A27
:100B2000F7D10EE7BCEC011AD1ED000A5B1E40EED6
:100B3000410AE1EC010AF5D14DE7B0EC011AD2ED22
:100B4000000A5B1E40EE410AE2EC010AF5D17BE7A8
:100B50002DE9F04F82B046685368019305884788B5
:100B60004B88002000900888874201BFB2F800C07F
:100B70006545528893421EBF6FF0020002B0BDE887
:100B8000F08F9FED412A4FEA970EC7F3400B00BF4D
:100B9000DDE9000202EB800A4A6898464FF000093E
:100BA000B0EE420AB4465FEA0E0025D092ED001A7C
:100BB000DCED001A02EB8302DCED010A01EE810A92
:100BC00092ED001A02EB8302401ED2ED001A02EBF6
:100BD000830200EE810A9CED021ADCED030A000498
:100BE0000CF1100C000C01EE210A92ED001A02EB40
:100BF000830200EE810AD9D117F0030026D0ACF1B0
:100C00000404A2EB830210F0010F08D002EB830270
:100C1000D4ED010A92ED001A241D00EE810A5FEA6C
:100C20000B0013D002EB830CD4ED010A9CED001AEB
:100C300002EBC302401E00EE810AD4ED020A92EDDF
:100C4000001A04F1080400EE810AEBD109F1010059
:100C5000AAEC010A1FFA80F9486800EB8902A8F1A2
:100C600001001FFA80F8B8F1000F99D1009806EB47
:100C70008706184480B20090681E05042D0C87D1A9
:100C800002B00020BDE8F08F0000000070B40588BD
:100C90000E884468D1F804C05368B54208D1408832
:100CA0004988884201BF11888D425188884203D00B
:100CB00070BC6FF00200704705FB00F1880827D078
:100CC00094ED001ADCED000A94ED010ADCED011A46
:100CD00031EE601AD4ED020A70EE611A9CED020A40
:100CE00083ED001AC3ED011A94ED031ADCED031A2B
:100CF00030EEC00A401E71EE610A83ED020A04F173
:100D00001004C3ED030A03F110030CF1100CD7D14A
:100D100011F0030030D0B0F1004F30D200282BDDAD
:100D2000211F1B1FACF1040210F0010F0AD091ED3E
:100D3000010AD2ED010A091D121D30EE600A83ED91
:100D4000010A1B1D400817D091ED010AD2ED010ADE
:100D5000401E30EE600A83ED010A91ED020AD2EDE9
:100D6000020A01F1080102F1080230EE600A83ED87
:100D7000020A03F10803E7D170BC00207047B4EC0D
:100D8000010A401EFCEC010A30EE600AA3EC010AE5
:100D9000F5D1F1E72DE9F04F02884768B0F80280FD
:100DA0004888D1F8049082B04FF0000A164682427B
:100DB00007BF098888456FF0020002B018BFBDE880
:100DC000F08F4FEA980B02EB42000190C8F340000D
:100DD000CDF8000009EB8A01BBF1000F33D0019878
:100DE00001EB820C01EB80043B46E64601EBC205B9
:100DF0004FEA0B0093ED000A401E81ED000A93EDCF
:100E0000010A01EB02118CED000A93ED020A0CEBD2
:100E1000021C85ED000A93ED030A05EB021584ED33
:100E2000000A04EB021403F11003E3D10EEB82007D
:100E300000EB820000EB8201ABF10100504307EBB5
:100E40000B1701EB001118F0030C21D03B1FA1EB95
:100E500082011CF0010F06D093ED010A01EB820123
:100E60001B1D81ED000A009880B100BF93ED010ABF
:100E700001EB820401EBC20184ED000A93ED020A4A
:100E8000401E81ED000A03F10803EFD107EB8C0748
:100E90000AF101001FFA80FA701E0604360C99D17F
:100EA00002B00020BDE8F08F70B5064600F0EAF908
:100EB000056806F10B0020F00704B4429CBF002037
:100EC00070BD2B466A68BAB11068A04210D304F115
:100ED000080188423CBF5068586007D35168101918
:100EE00041601168091B016058601460101D70BDDD
:100EF00013465268002AE7D12146284600F0CAF975
:100F00000028DED170BD70B50446051F00F0BAF9A7
:100F10000068002C14BF446870BD002C18BFAC42A0
:100F20003CBF20466468F8D301680A18AA4218BF7B
:100F3000456003D12A6805461144016028684119BB
:100F4000A1421CBF6C6070BD616869602168084483
:100F5000286070BD53EA020C00F069802DE9F04B67
:100F60004FF00006002B1FBFB3FA83F503FA05F418
:100F700024FA05F65E4012BF1643B2FA82F502FA71
:100F800005F4C5F120051EBF22FA05FC44EA0C0455
:100F9000203556EA044C4FEA144418BF641C4FF045
:100FA00000084FF00009904271EB030C39D300297F
:100FB00019BFB1FA81F701FA07F6B0FA80F700FA23
:100FC00007F6C7F120071EBF20FA07FC46EA0C0609
:100FD0002037B6FBF4FCA7EB0507103F07F01F0B0B
:100FE000CBF120060CFA0BFB2CFA06F644BFB346F5
:100FF0000026202FA4BF5E464FF0000B5BEA060CD4
:1010000008BF4FF0010B19EB0B09ABFB027C48EB5F
:101010000608C01B06FB02CC0BFB03CC71EB0C01DA
:10102000C1E70B46024641464846BDE8F08B13B582
:101030004FF000004FF00001AFF30080BDE81C400E
:10104000704700001CB50C46064B7B446946009077
:10105000204600F02CFA04460020694600F03AFAD7
:1010600020461CBD8704000040EA0103024630B55B
:101070009B0710D14FF0013400E008C208C91D1BC6
:101080009D4315EAC41FF8D013F0FF0102F8011BBD
:101090000DD01B0AF8E711F8013B002B02F8013BC9
:1010A00005D011F8013B002B02F8013BF3D130BD14
:1010B00010B5431C02E010F8011B71B18107FAD191
:1010C0004FF0013202C88C1A8C4314EAC211F9D0D5
:1010D000C01A0A0603D0C01E10BDC01A10BD0A04F3
:1010E00001D0801E10BD0902FCD0401E10BD032A95
:1010F00040F2308010F0030C00F0158011F8013B35
:10110000BCF1020F624498BF11F801CB00F8013B1B
:1011100038BF11F8013BA2F1040298BF00F801CBDF
:1011200038BF00F8013B11F0030300F02580083AB6
:10113000C0F0088051F8043B083A51F804CBA0E80D
:101140000810F5E7121D5CBF51F8043B40F8043B62
:10115000AFF30080D20724BF11F8013B11F801CB97
:1011600048BF11F8012B24BF00F8013B00F801CB68
:1011700048BF00F8012B704710B5203AC0F00B8033
:10118000B1E81850203AA0E81850B1E81850A0E88B
:101190001850BFF4F5AF5FEA027C24BFB1E81850E5
:1011A000A0E8185044BF18C918C0BDE810405FEA55
:1011B000827C24BF51F8043B40F8043B08BF7047D1
:1011C000D20728BF31F8023B48BF11F8012B28BFD6
:1011D00020F8023B48BF00F8012B704702F0FF03E4
:1011E00043EA032242EA024200F002B84FF0000252
:1011F0000429C0F0128010F0030C00F01B80CCF129
:10120000040CBCF1020F18BF00F8012BA8BF20F896
:10121000022BA1EB0C0100F00DB85FEAC17C24BFEA
:1012200000F8012B00F8012B48BF00F8012B704794
:101230004FF0000200B5134694469646203922BF6F
:10124000A0E80C50A0E80C50B1F12001BFF4F7AFBA
:10125000090728BFA0E80C5048BF0CC05DF804EB9C
:10126000890028BF40F8042B08BF704748BF20F80A
:10127000022B11F0804F18BF00F8012B7047704708
:101280007047704700487047DC9C002070477047EB
:101290007047704738B504460A4600206946AFF3E8
:1012A0000080002808BF38BD02460099204600F0A3
:1012B00001FB012038BD012000F0A6BFF8B5AFF357
:1012C0000080054600200C46102000BF0646A819E5
:1012D000A0420DD9324669460020AFF300800700D6
:1012E00008BF00F091FF0098A04218BF0546C4193E
:1012F000FFF7C8FF05600746F01D20F007004619FC
:10130000284600F00AF8B44208BFF8BDA21B3146D7
:101310003868BDE8F84000F0CDBA00210160C0E9AE
:10132000011070471020704710B500F0BFFA006838
:1013300010BD10B5044600F0B9FA046010BD70B5D8
:10134000044685690068C10601D5302600E02026E4
:10135000C00707D070BDD4E9012130469047206A0C
:10136000401C20626D1EF6D570BD70B504468569BF
:101370000078C00707D170BDD4E901212020904733
:10138000206A401C20626D1EF6D570BD09684A05B2
:1013900001D540B27047C905FCD500B27047096855
:1013A0004A0501D5C0B27047C905FCD580B2704767
:1013B00070B50C460546012A05D02878800600D570
:1013C000EA69002302E0012305E05B1C934202D29C
:1013D000E05C0028F9D1A869E618C01AA861286A5B
:1013E000184428622846FFF7AAFF04E0D5E9012146
:1013F00014F8010B9047B442F8D32846FFF7B5FF25
:1014000070BD00002DE9F0410646002410687529E2
:10141000314616A510D0FFF7B9FF002802DA404286
:1014200013A507E031688A0701D512A502E0490734
:1014300004D511A5012401E0FFF7B1FF00210A2224
:1014400006F1240709E0B0FBF2FCB0FBF2F302FB6B
:101450001C00303078541846491C0028F3D123462C
:101460002A463046BDE8F04100F09CBA000000007A
:101470002D0000002B000000200000001168026811
:10148000006A530501D508700AE0D30501D508802C
:1014900006E0130603D5C217C1E9000200E00860A8
:1014A0000120704701694A1C02610878704700B545
:1014B0008FB0CDE901310021059105497944CDE98D
:1014C00003101146684600F029F90FB000BD000076
:1014D000E5FFFFFF0A6802F8010B0A607047000091
:1014E0002DE9FF5F15468A460446DFF8AC80F844D4
:1014F0000027D8E900103E46CDE9001010E03AF888
:1015000016106A4602A800F05FFE411C07D0217841
:10151000890603D5E269391891420DD80744761C33
:101520002078800602D5E069B84205DDAE42E6DBF0
:101530003AF816000028E2D1A069C01BA06120463D
:10154000FFF7FDFED8E90010CDE90010002017E0FC
:101550003AF818106A4602A800F036FEB0F1FF3FD4
:1015600081460BD000250DF1080B05E0D4E90121DF
:101570001BF8050090476D1C4D45F7D308F101009D
:10158000B0428046E4DB206A384420622046FFF700
:10159000ECFEBDE8FF9F0000167B01002DE9F04145
:1015A0008046D21D22F007020025D2E90002F5296B
:1015B00015A614D0011E72F1000106DA0023D0EB4B
:1015C000030063EB020211A608E0D8F800108B07B5
:1015D00001D50FA602E0490701D50EA60125114647
:1015E000002408F1240704E000F07EF930323A5577
:1015F000641C50EA0102F7D12B4632462146404690
:10160000BDE8F04100F0CEB9000000002D00000060
:101610002B0000002000000030B4002100F1240461
:1016200008E002F00705D208303542EA4372DB08D1
:101630006554491C52EA0305F3D10468002310A243
:10164000250707D5A40600D421B1C46901230DA242
:10165000641EC46130BC00F0A5B910B50446214633
:101660001068FFF79CFE02462046BDE810400023AC
:10167000D2E7D21D22F00701D1E90023CCE7000018
:101680000000000030000000F0B40D46018809059C
:1016900002D5214C7C4402E01F4C7C440E340021D6
:1016A00000F1240608E002F00F071209E75D42EAA4
:1016B00003721B097754491C52EA0307F3D10278DD
:1016C0000023120704D5702D06D009B1022311346E
:1016D0002246F0BC00F066B901231034F8E770B57B
:1016E00004460D4621461068FFF759FE024629467A
:1016F0002046BDE870400023C6E7D21D22F0070354
:10170000D3E90023C0E70368126843F020030360B5
:101710000823C3610023B7E7787901002DE9F05F62
:10172000894604464FF0000ADFF874B1FB44C0F864
:1017300020A02046E1688847002874D0252806D0DC
:10174000D4E901219047206A401C2062F1E700267D
:101750005F462046E16888472028054607DB312D93
:1017600005D2781910F8200C08B10643F1E7B0074C
:1017700001D526F00406C4F81CA00027C4F818A060
:101780002A2D09D028460EF0F3F838B304EB870869
:10179000303DC8F8185019E059F8041B204604EBF6
:1017A00087029161E1688847012F054618D1E069F9
:1017B000002820DA26F020061DE0D8F8180000EBFB
:1017C000800005EB40003038C8F818002046E1687A
:1017D000884705460EF0CCF80028EED1012F0AD03C
:1017E0002E2D08D12046E16888477F1C0546022F30
:1017F00046F02006C4DBA069002803DA404246F028
:101800000106A061F00701D026F010066C2D0BD068
:10181000682D09D04C2D39D06A2D35D0742D35D096
:101820007A2D33D016E038E0E1682F46204688470D
:10183000B842054609D16C2F26D04FF48060E1688C
:10184000064320468847054604E06C2F1AD04FF423
:10185000807006430DB3A5F14100192802D8203548
:1018600046F400664A462946204626604E46FEF764
:10187000E9FC80B101280BD0F61D26F0070000F12D
:10188000080956E74020E4E78020D8E70020D6E7A3
:1018900006F104094DE7284652E7206ABDE8F09FAB
:1018A0000879010000487047D49C00200048704728
:1018B000D49C0020034640688C46002818BF88420C
:1018C0003CBF03464068F8D318681844884207D0E4
:1018D0000CF1030020F00700001D411A521A0146C6
:1018E000081D0A60FFF70FBB30B5B0F10A024FEADE
:1018F000900E71F100034EEA817EB0EB0E0061EBB9
:1019000091014FEA101E4EEA017E10EB0E0041EBF2
:1019100011114FEA102E4EEA016E10EB0E0041EB52
:1019200011214FEA104E4EEA014E10EB0E0041EB32
:101930001141401841F100014FEAD00040EA4170E6
:101940004FEAD10110EB80054FEA810444EA90741C
:1019500044EB01046D1944EB0404521BA3414FF006
:10196000000348BF0A3200D530BD401C41F10001E0
:1019700030BD00001FB584B000200A9C06AB04AA4D
:1019800002A90094AFF3008018B1DDE9020108B0AC
:1019900010BD0348204000F031FD00200146F6E76D
:1019A0000000207C2DE9F0470D46994692460446FA
:1019B00000F124080168880604D5E06921F01001CF
:1019C000216000E00120A84201DD471B00E0002764
:1019D000A1697A1902EB0900081AA0612078C006F3
:1019E00002D42046FFF7ABFC002608E0D4E9012131
:1019F0001AF806009047206A401C761C20624E456B
:101A0000F4DB2078C0060AD52046FFF798FC06E0F4
:101A1000D4E9012130209047206A401C2062381E02
:101A2000A7F10107F4DC07E0D4E9012118F805006B
:101A30009047206A401C2062281EA5F10105F3DCB6
:101A40002046FFF792FC2078000602D50220BDE870
:101A5000F0870120FBE770472DE9FF4F0C461E463B
:101A60004FF0FF378BB0D2E90001DDF860800A90BB
:101A70008A46C1F30A5505B93D460021084615F0CE
:101A800067FDBAF1000F00F4400005DA00EB8000BA
:101A90004FF4400101EA50004FEA9059B9F1010FAB
:101AA00000DDB9460A9850EA4A000ED044F61050BC
:101AB000A5F2FF3545432F14B8F1000F1ED0754233
:101AC000291E1EDDC9F100021CE0B8F1010F4FF024
:101AD000000001D0302103E0F24305E02154401C16
:101AE000B042FBDB30460022002121540B99C1F8A3
:101AF0000880C1E900200FB0BDE8F08FBD1B6D1C50
:101B0000DEE74A4600DA694206A800F0F7FB06ABBA
:101B100093E8070003AB83E8070050460A9900F0FA
:101B20005AFD8DE80700A0F500501F38009003987B
:101B3000002D0ADD42F21F014A460844002303A992
:101B40000390684600F0C3FF09E0A0F500504A4644
:101B50001F38002303A90390684600F0CDFF8DE8ED
:101B600007000004000C03D04FF0FF30410800E0F4
:101B70001046B8F1000F03D00022009215461EE077
:101B8000751E05D4FFF7B0FE303262556D1EF9D5D3
:101B9000B3460122084302D000227F1C04E02078D3
:101BA000302801D100227F1E002A099784D01DE031
:101BB000112D07DAFFF798FE303262556D1C50EA9E
:101BC0000102F5D1084302D00098C8B10EE000210F
:101BD000681E05E0235C625C63542254401E491C6D
:101BE0008142F7DBAB46A81B401E0990002004F899
:101BF0000B000B98099AC0F80880C0E9002B7AE71F
:101C000011264FF0000857E72DE9F04F88460446AB
:101C1000D21D22F0070191B0D1E90001CDE90A01FE
:101C20000CF01FFA02460B98C00F01D02D2007E0E0
:101C30002068810701D52B2002E0202101EAC000A5
:101C4000032A099001D0072A05DB034641462046B6
:101C500000F014FB0BE12078800601D5E06900E07C
:101C60000620B8F1650F814606D0B8F1660F18D08E
:101C7000B8F1670F70D131E00020B9F1110F009079
:101C800001DB112301E009F101030AAA01A90CA853
:101C9000FFF7E2FEDDE90C70002609F1010583463D
:101CA00047E001204B4600904FF000470AAA01A9E7
:101CB0000CA8FFF7D1FEDDE90DB00C995D460026BA
:101CC00010B909F101000D18B9EB050003D4C0F1FA
:101CD000FF3609F10105A5EB09002BE0B9F1010F71
:101CE00001DA4FF001090020B9F1110F00904846C8
:101CF00001DD112300E003460AAA01A90CA8FFF7A1
:101D0000ABFEDDE90C704D460026834620780007C7
:101D10000AD4AB4500DA5D4601A8012D04DD411966
:101D200011F8011C302907D04F4502DA17F1040FD2
:101D300004DA012082460FE06D1EEEE7002F02DC80
:101D4000ED1B3E4403E0781CA84200DD7D1CB81B5F
:101D500000F1010A4FF000472078000703D4AA459C
:101D600001DB4FF0FF3A0021B7F1004F0DF14308BE
:101D70008DF8431024D002202B23002F01DA7F425C
:101D80002D230A21021EA0F1010000DC5FB197FBA8
:101D9000F1FC97FBF1F201FB1C7C17460CF1300CB7
:101DA00008F801CDEEE7A8F10100037021880905CC
:101DB00001D5452100E06521A0F1010800F8011CD2
:101DC00009980FA9A1EB0807FF1D00B101204119D7
:101DD00001EBEA70A1693844081A401EA06120781E
:101DE000C00602D42046FFF7AAFA099828B1D4E920
:101DF00001219047206A401C20622078C00622D52D
:101E00002046FFF79CFA1EE0002E04DBB34502DDFE
:101E100001A8805D00E03020D4E901219047206ACC
:101E2000401C2062761CAAF101005FEA000A0AD178
:101E300000F020FAC0680168405CD4E901219047B5
:101E4000206A401C2062281EA5F10105DCDC07E0A9
:101E5000D4E9012118F8010B9047206A401C206248
:101E6000381EA7F10107F3DC2046FFF77EFA0320B6
:101E700011B041E62DE9F04F04460D46D21D22F087
:101E8000070089B0D0E90097484639460CF0E9F8D8
:101E90000246F80F01D02D2307E02068810701D505
:101EA0002B2302E0202101EAC0038DF820300BB182
:101EB000012000E00020032A824601D0072A04DB2B
:101EC0002946204600F0DAF93FE12078800601D467
:101ED0000D2500E0E569C7F30A560D2D49DA00210A
:101EE0004FEA175B084615F033FB002F00F4400063
:101EF00007DA00EB80004FF4400100EBD07001EAFC
:101F000060008115012901DD4FF0FF3100224FEA09
:101F1000850CBCF1180F06D31346ACF118004FF036
:101F20008052C24003E04FF4801323FA0CF30CF10B
:101F30000C0CBCF1200F04D3ACF1200C09FA0CF00E
:101F400001E007FA0CF000294FF0004801DD18B954
:101F50000FE00ED140450CD319EB02095F4121B9C6
:101F6000404502D19F4329EA0209BBEB175F00D02D
:101F7000761C2088000502D57B48784402E07A4828
:101F80007844193808AA302302F80A30037C0AF191
:101F90000101002E0AF1020A53546A4602DC4FF096
:101FA000300101E04FF031014FF001088DF80010D1
:101FB00002D0A6F2FF3603E059EA470100D06B4E8B
:101FC000002D02DC2178090704D54FF002082E21EC
:101FD0008DF80110C44600210BE0C7F303433F0115
:101FE000C35C491C6D1E02F80830052908F1010880
:101FF00001DA002DF1DC00210CE000EB1973491C23
:102000001B786D1E082902F808304FEA091908F1FB
:10201000010801DA002DF0DC21688B0602D516E0FC
:10202000A8F10108E04505DD02EB080313F8013CC7
:10203000302BF5D0B8F1000F09DD02EB080313F8DF
:10204000013C2E2B03D1090701D4A8F10108002D72
:1020500005DD3E2102F808106D1E08F10108407CE4
:10206000002E02F8080008F1010804DA2D2076425B
:1020700002F8080002E02B2002F808000A214FF4C1
:102080007A70864208F101080BDB96FBF0F33033DF
:1020900002F8083096FBF0F308F1010800FB136624
:1020A00001E0642E0CDB642096FBF0F3303302F881
:1020B000083096FBF0F308F1010800FB136601E01D
:1020C0000A2E06DB96FBF1F0303002F8080008F12A
:1020D000010896FBF1F001FB1060303002F80800B7
:1020E000A16908F1010808EB050202EB0A00081AD1
:1020F000A0612078C00602D42046FFF720F9216AAB
:1021000008AE01EB0A00206204E0D4E9012116F8D0
:10211000010B9047BAF1010AF7D22078C00602D528
:102120002046FFF70CF96E4609E016F8010B3E2831
:102130000FD0D4E901219047206A401C2062B8F1F9
:102140000108F2D22046FFF710F909B00320BDE8DC
:10215000F08F206A2844206203E0D4E90121302076
:1021600090476D1EEBD3F8E72D72010002FCFFFFD4
:1021700010B5436913B1AFF3008001E0FFF718F920
:10218000012010BD127800F124010A7000224A706B
:102190000122EDE711684FF0FF32E9E710B543691E
:1021A00013B1AFF3008001E0FFF79AF9012010BDF1
:1021B000128800F1240182840022C2840122EDE70A
:1021C00011684FF0FF32E9E770B516460C46054638
:1021D00000F048F8036893F80101012806D0FF2CAD
:1021E0000FD8185D68B101202C7070BDD3F80701BD
:1021F0003246214603F2071303442846BDE87040E7
:1022000018474FF0FF3070BD10B500F0FFF8BDE883
:10221000104000F0EEB870477546FFF743FBAE463E
:1022200005006946534620F00700854618B020B5E2
:10223000FEF7E6F8BDE820404FF000064FF000073B
:102240004FF000084FF0000B21F00701AC46ACE85E
:10225000C009ACE8C009ACE8C009ACE8C0098D46CB
:102260007047000010B500F005F8001D10BD00BF5C
:102270001D39010000487047F49C00202DE9F04111
:102280001F46044603260168072A01F4006004DBA8
:1022900008B116A505E016A503E008B115A500E0F4
:1022A00015A521F010002060A069C01EA0610FB12B
:1022B000401EA0612046FFF742F84FB1D4E901214A
:1022C00038469047206A401C2062C01C206206E00D
:1022D000206AFAE7D4E9012115F8010B9047761E30
:1022E000F8D22046FFF741F8BDE8F0814E414E009C
:1022F0006E616E00494E4600696E66002DE9F0473A
:10230000814616468AB0354878440DC88DE80D00E0
:1023100032487844801C03AC0DC884E80D0041F6B7
:102320009B300844372190FBF1F290FBF1F5A5F1C9
:10233000800501FB12041B3C02D56442012000E031
:102340000020DFF898A080460027FA44AAF1BE0AD0
:102350000EE0E0070AD03246684607EB470101234A
:102360000AEB810100F0C8FB8DE8070064107F1CB8
:10237000002CEED1194F7F44AE3F19E0E80715D08D
:1023800007EB04100DF1180A90E80E008AE80E0021
:10239000C068F04201D1981908903246012306A97D
:1023A00003A800F0A9FB03AB83E807006D10641CD1
:1023B000002DE3D14FF0010332466946B8F1000F1A
:1023C00003A802D000F083FB01E000F095FBC9E90F
:1023D0000001C9F808200AB0BDE8F087306F01009D
:1023E00010B50446AFF300802046BDE81040FDF76D
:1023F00092BF002801D000F031B8704710B500F04E
:102400004DF8BDE81040FFF7F4BF000010B50128FB
:1024100005D0002103A000F027F8012010BD09A17C
:10242000F8E7000053494752544D454D3A204F7547
:1024300074206F662068656170206D656D6F7279BC
:10244000000000003A2048656170206D656D6F7274
:102450007920636F72727570746564000149182089
:10246000ABBEFEE72600020070B505460C460A200A
:1024700000E06D1C00F0A8F835B128780028F8D1EC
:1024800002E0641C00F0A0F814B120780028F8D114
:10249000BDE870400A2000F097B8000010B502288F
:1024A00003D0410103D50DA112E0002010BD0101B0
:1024B00001D50FA10CE0C10001D511A108E08100F8
:1024C00001D512A104E0400001D513A100E00021D4
:1024D00015A0FFF7C9FF012010BD0000496E76610D
:1024E0006C6964204F7065726174696F6E000000E2
:1024F000446976696465204279205A65726F0000EC
:102500004F766572666C6F7700000000556E6465EB
:1025100072666C6F77000000496E657861637420A5
:10252000526573756C7400005349474650453A2014
:1025300041726974686D657469632065786365705C
:1025400074696F6E3A2000004FF0013C50F8042B84
:1025500051F8043B9A4221D1A2EB0C03934313EAB6
:10256000CC1317D150F8042B51F8043B9A4215D1E3
:10257000A2EB0C03934313EACC130BD150F8042BBA
:1025800051F8043B9A4209D1A2EB0C03934313EA9E
:10259000CC13DBD04FF00000704700BFD01A01BA57
:1025A000B1FA81F101F0180122FA01F0CB40C1F13A
:1025B0002001DBB2C0B2C01A2CFA01F3D11A914348
:1025C00011EAC311E6D1704708B569468DF80000DD
:1025D0000320ABBE08BD5FEA400C08BF91F0000FBE
:1025E0004FEA8C234FEAC12243EA51514FEA1C5073
:1025F00018BF00F5F0404FEA300018BF41F000412D
:102600005FEA6C5C00F02980BCF1FF3F08BF40F03E
:1026100080407047130C06BF12044FF0100C4FF0AF
:10262000000C130E04BF12020CF1080C130F04BFB0
:1026300012010CF1040C930F04BF92000CF1020C78
:10264000D30F04BF52000CF1010C11464FF00002F1
:10265000A0F11F00A0EB0C00704711F0004F08BF65
:10266000704731F000413FF4D5AF0B0C06BF0904B1
:102670004FF0100C4FF0000C0B0E04BF09020CF1D0
:10268000080C0B0F04BF09010CF1040C8B0F04BFE5
:1026900089000CF1020CCB0F04BF49000CF1010CB6
:1026A000CCF12003A0EB0C0022FA03F302FA0CF2A7
:1026B00041EA030100F10100704720F07F4C80EAFD
:1026C000030023F07F47ACEB070303F57C5300F0D6
:1026D000004003F1FF032DE980494FEA154B09B48F
:1026E0004FEA144325EA0B4E24EA03480FF204266E
:1026F00006EB132749083E785FEA320203FB0667C0
:10270000C7F5000707FB06F64FEA54374FEAD646EF
:1027100006F1020607FB066CCCF1005C4FEA1C4791
:102720002CEA074C07FB06F40CFB06F504EB1546F8
:102730004FEA961634BF00204FF000404FEAD137E1
:1027400006FB07FC4FEA1C4C0CFB0BF7D21B03FBF0
:102750000CF761EB07010CFB0EF7B0EB074072EBD7
:1027600017420CFB08F734BFA2EB0742B2EB07425B
:1027700061EB17414FEA0C444FEA910706FB07FC57
:102780004FEA1C4C0CFB0BF7B0EBC74072EB573217
:1027900003FB0CF734BFA2EBC742B2EBC74261EBBD
:1027A00057310CFB0EF7B0EBC70072EB57720CFB06
:1027B00008F734BFA2EBC702B2EBC70261EB577157
:1027C000039F4FEA816141EA921104EBCC044FEA86
:1027D000D1374FEA826206FB07FC42EA90124FEAC9
:1027E00080604FEA1C4C0CFB0BF7D21B03FB0CF771
:1027F00061EB07010CFB0EF7B0EB074072EB1742E1
:102800000CFB08F734BFA2EB0742B2EB074261EBC7
:1028100017414FEA8C554FEA910704EB9C2406FBC5
:1028200007FC4FEA1C4C0CFB0BF7B0EBC74072EBFC
:10283000573203FB0CF734BFA2EBC742B2EBC742DF
:1028400061EB57310CFB0EF7B0EBC70072EB577220
:102850000CFB08F734BFA2EBC702B2EBC70261EB77
:10286000577115EB4C254FEA816141EA92114FEA0D
:1028700082624FEAD13742EA901206FB07FC44F12C
:1028800000044FEA80604FEA1C4C0CFB0BF7D21B94
:1028900003FB0CF761EB07010CFB0EF7B0EB0740F5
:1028A00072EB17420CFB08F734BFA2EB0742B2EB06
:1028B000074261EB174115EB1C154FEA813141EAE4
:1028C00092414FEA823242EA90424FEA80304FEA28
:1028D0000C7644F1000448EA03434EEA0B484FF0FB
:1028E000000EB2EB080C71EB030724BF62463946B9
:1028F0004EEB0E0E4FF0000B0018524149414BEBCE
:102900000B0BB2EB080C71EB03077BF1000B24BF40
:10291000624639464EEB0E0E4FF0000B0018524146
:1029200049414BEB0B0BB2EB080C71EB03077BF14E
:10293000000B24BF624639464EEB0E0E51EA0207E9
:1029400018BF46F0010616EB0E7655F1000254F161
:10295000000103D5BDE88901BDE80088BDE8890113
:10296000BDE80048B619524141EB0101A3F1010352
:10297000704780807F7E7D7C7B7A797877767675EC
:102980007473727171706F6E6E6D6C6C6B6A6A6964
:102990006868676666656464636362616160605FFE
:1029A0005F5E5E5D5D5C5C5B5B5A5A595958585777
:1029B00057565655555554545353525252515150DF
:1029C00050504F4F4F4E4E4D4D4D4C4C4C4B4B4B32
:1029D0004A4A4A4949494848484747474746464678
:1029E00045454544444444434343434242424241B3
:1029F0004141002B9C4630D477002BD01CB54FEAC8
:102A0000370703B44FF010004FF01001BAF1000F78
:102A100006D0BCF1000FDCBF40F0080040F0080118
:102A200014F096FD0FBCBDE810400BF1010BBBF19B
:102A3000010F08BF5FEA170722BF12F1010211F16F
:102A400001014FF0004143F1000300F0004043EA70
:102A500000007047F9D35708D0E746EA064613F15D
:102A6000400F4FEA16461FDD13F1200FDFBF16435C
:102A70000A46002120335B42BED0C3F1200746EA5C
:102A8000064602FA07F74FEA164646EA0706C3F17A
:102A9000200722FA03F201FA07F721FA03F14FF0B7
:102AA000000342EA0702A7E746EA020646EA0646AC
:102AB0004FEA164646EA0106BCBF46EA0646360C11
:102AC0004FF000034FF000024FF0000194E72DE9B2
:102AD000804C9A46934670B491E8380007C831EAB2
:102AE000400C48BF34EA430C03D5FFF7E6FDFFF77F
:102AF00080FFF0BCBDE8008C2DE9804C9A469346DF
:102B000070B491E8380007C810F0804F08BF13F088
:102B1000804F03D100F005F8FFF76BFFF0BCBDE874
:102B2000008C20F07F4780EA030023F07F4C07EB06
:102B30000C03A3F57C5300F00040A3F1FE0392F0D8
:102B4000000F00F0B38095F0000F00F077802DE9C2
:102B500001494FEA11404FEA144621EA004800FBC0
:102B600006FC24EA064708FB06F607FB08F800FB0C
:102B700007F718EB06484CEB164C4FEA124B18EBD4
:102B800007484FEA15464CEB174022EA0B4E0BFB69
:102B900006FC25EA06470EFB06F607FB0EFE0BFBBE
:102BA00007F71EEB064E4CEB164C4FF000061EEBE3
:102BB000074E4CEB174B18EB0B0840F1000018EBDD
:102BC0000E0B58EB000840F100008F1A4FF0000187
:102BD0003CBFC943661B14BFB5EB040C00213CBFCE
:102BE000C943F61B4FEA17444EEA8E0E27EA044506
:102BF0004FEA1C4704FB07622CEA074C05FB07F76A
:102C00000CFB05F604FB0CFC16EB074642EB1742E7
:102C100016EB0C4642EB1C421BEB060658EB02027D
:102C2000414146EA9E0601D5BDE80189B6195241E7
:102C300041EB0101A3F10103BDE801894FEA14450D
:102C40004FEA114724EA054621EA074C05FB07F441
:102C500006FB07F70CFB06F105FB0CFC11EB07412B
:102C600044EB17444FEA124711EB0C4144EB1C4470
:102C700022EA074C05FB07F206FB07F70CFB06F6FA
:102C800005FB0CFC16EB074642EB174216EB0C4615
:102C900042EB1C456A1854F1000148BF7047B61951
:102CA000524141EB0101A3F10103704795F0000F80
:102CB00037D04FEA11424FEA144721EA024624EA8C
:102CC000074C02FB07F106FB07F70CFB06F402FBBF
:102CD0000CFC14EB074441EB17414FEA154714EB8A
:102CE0000C4441EB1C4125EA074C02FB07F506FBAF
:102CF00007F70CFB06F602FB0CFC16EB074645EB50
:102D0000174516EB0C4645EB1C42121951F1000118
:102D100048BF7047B619524141EB0101A3F10103CD
:102D200070474FEA14454FEA114724EA054621EA65
:102D3000074C05FB07F106FB07F70CFB06F24FF00B
:102D4000000605FB0CFC12EB074241EB174112EBAE
:102D50000C4251EB1C4148BF7047921841EB0101F6
:102D6000A3F10103704700004A494A6822F4403247
:102D70004A604A6843681A434A6001684A6822F414
:102D800080724A6001684A68036942EA03224A6025
:102D900001684A6822F040724A6001684A688368A4
:102DA0001A434A6001688A6822F400628A600168F6
:102DB0008A68C3681A438A60816A6FF07062D14280
:102DC00014D001688A6822F070628A6001688A689B
:102DD000836A1A438A6001688A6822F040528A60D6
:102DE00001688A68C36A1A438A6009E001688A68D0
:102DF00022F070628A6001688A6822F040528A601C
:102E000001688A6822F002028A6001688A68037E8B
:102E100042EA43028A6090F8201089B101684A684A
:102E200042F400624A6001684A6822F460424A60E3
:102E300001684A68436A5B1E42EA43324A6004E022
:102E400001684A6822F400624A600168CA6A22F492
:102E50007002CA620168CA6A838B5B1E42EA03522F
:102E6000CA6201688A6822F400728A6001688A680E
:102E700090F8303042EA43228A6001688A6822F47E
:102E800080628A6001688A68406942EA80208860BE
:102E900070470000002301400BF00EB90BF008BC96
:102EA000FDF7C0BAF0EE400AF5EEC00AF1EE10FAF6
:102EB00002DDB0EE600A7047B1EE600AFBE7000089
:102EC000002803D09FED020A80ED000A7047000041
:102ED00000000000002803D0B3EE060A80ED000ACF
:102EE0007047000070B52DED0C8B84B006460C4683
:102EF00015469FED990AF0EE408A9FED970AB0EED5
:102F0000409A9FED950AF0EE40BA9FED930AF0EEDD
:102F1000409A9FED910AB0EE40AA0EB104B11DB9DE
:102F200004B0BDEC0C8B70BD8C48FFF7C9FF8C481A
:102F3000FFF7D0FF8A48D0ED000A9FED8A1A60EEB5
:102F4000810AB0EE600A00F025F9F0EE408A28EE22
:102F5000A80AF0EE408A8248D0ED000AB0EE001ACE
:102F600060EE810A9FED7F1A60EE810AB0EE600A82
:102F700000F010F9B0EE409A29EE090AB0EE409A3E
:102F8000DFED790AB7EE000A00EEA80ADFED770A56
:102F900000EEC90ADFED760A20EE200A754880EDC2
:102FA000000A6E4890ED000ADFED730A80EE201AE9
:102FB000B7EE000A31EE000A20EE000A6D48D0EDAF
:102FC000000A80EE801A6D4880ED001A94ED000A28
:102FD000B5EEC00AF1EE10FA0DD194ED010AB5EE8E
:102FE000C00AF1EE10FA06D194ED020AB5EEC00A5D
:102FF000F1EE10FA46D09FED580AB0EE408A00205C
:10300000019002900390D4ED000A60EEA00A94EDC6
:10301000011AD4ED011A41EE210A94ED021AD4ED01
:10302000021A41EE210AB0EE600A00F0A9F8B0EEF3
:10303000408A94ED000A20EE080A8DED010A94ED15
:10304000010A20EE080A8DED020A94ED020A20EE34
:10305000080A8DED030ADDED010AF1EE600AB0EE1B
:10306000600AFFF719FFF0EE409A9DED031AF0EEAB
:10307000410A9DED021AB0EE410AFFF70FFFB0EED4
:1030800040AA07E09FED340AF0EE409A9FED320A25
:10309000B0EE40AA95ED000AB5EEC00AF1EE10FAC6
:1030A0000DD195ED010AB5EEC00AF1EE10FA06D188
:1030B00095ED020AB5EEC00AF1EE10FA3CD0B0EE82
:1030C000690A00F067F8B0EE408AB0EE690AFFF7CF
:1030D000E7FEB0EE40DAB0EE4A0A00F05BF8F0EE40
:1030E00040AAB0EE4A0AFFF7DBFEB0EE40BA28EE87
:1030F0002A0AD5ED010A20EE200AD5ED000A0DEED0
:10310000200A68EE0B0A95ED021A00EE810AB0EE75
:1031100040CA95ED010A20EE0B0AD5ED020A0AEE2F
:10312000E00AF0EE40CAF0EE6C0AB0EE4C0AFFF78F
:10313000B5FEF0EE40BA03E09FED070AF0EE40BAAC
:10314000B0EE4A1AF0EE690AB0EE6B0A30460DF0A6
:10315000B1FA00BFE4E6000000000000040800200F
:103160000808002035FA8E3CC1BFAD3B9DF8C5363E
:103170002F7C1C410C080020506CC24A1008002013
:1031800010B50BF03EFEB7EE001AC1EE000AB0EE2D
:10319000600A10BDFDF782B92DE9F0412DED028BDB
:1031A0009AB00546B0EE408A0E4617469846002073
:1031B0001790189019901490159016904DB146B133
:1031C0003FB1B8F1000F04D0B5EEC08AF1EE10FAAD
:1031D00005D100201AB0BDEC028BBDE8F08196ED60
:1031E000000A8DED170A96ED010A8DED180A96ED8D
:1031F000020A8DED190A97ED000A8DED140A97ED7C
:10320000010A8DED150A97ED020A8DED160A17AA2F
:1032100014A928460DF082F8402104A8FEF708F80A
:1032200000200090019002900390002417A904A8A8
:1032300011F07AFB00BF30E004A800EB041090ED21
:10324000000AD5ED000A20EE200A04A800EB0410C5
:10325000D0ED010A95ED011A00EE810A04A800EBF9
:103260000410D0ED020A95ED021A00EE810A04A8BE
:1032700000EB0410D0ED030A95ED031A00EE810A6D
:1032800020EE080AF0EE000A80EE201A684600EBF5
:10329000840080ED001A601CC4B2042CCCDB002436
:1032A00010E005EB840090ED000A684600EB840016
:1032B000D0ED000A30EE200A05EB840080ED000A14
:1032C000601CC4B2042CECDB284610F0E7FC0120A3
:1032D00080E7000001221021014803F029BC000012
:1032E0000000024000221021014803F021BC000030
:1032F000000002407047000001221146014803F01F
:1033000017BC00000004024000220121014803F024
:103310000FBC00000004024030B5437804781B0263
:103320001BB2234300EE103A1B4CB8EEC00AD4ED9A
:10333000000A20EE200A81ED000AC37885781B027E
:103340001BB22B4300EE103AF8EEC00A94ED000ACF
:1033500060EE800AC1ED010A437904791B021BB2B9
:10336000234300EE903AF8EEE00A20EE800A81ED69
:10337000020A017AC3790904807941EA03210143F1
:1033800000EE101ADFED050AB8EE400A20EE200A22
:1033900082ED000A30BD00001003002000401C42F6
:1033A00070470FF02BBF0EF097BE000010B54278AB
:1033B0000378120212B21A4300EE102A124BB8EE32
:1033C000C00AD3ED010A20EE200A81ED000AC2787E
:1033D0008478120212B2224300EE102AF8EEC00ADC
:1033E00093ED010A60EE800AC1ED010A427900798D
:1033F000120212B2024300EE902AF8EEE00A20EE2A
:10340000800A81ED020A10BD1003002010B5FFF7FD
:1034100071FFFFF7C5FF0DF0C5FA08B1802402E087
:103420000DF032FA04460DF083FC10B144F0400078
:1034300010BD0DF00FFC204310BD00002DE9FC4134
:1034400004460D461646002000900190FFF74AFF03
:10345000922000F0BFF806226946122000F09CF886
:10346000FFF738FF9DF801009DF80010000200B240
:10347000084300EE100A474FB8EEC00AD7ED000A25
:1034800020EE200A85ED000A9DF803009DF8021049
:10349000000200B2084300EE100AF8EEC00A97EDF1
:1034A000000A60EE800AC5ED010A9DF805009DF84E
:1034B0000410000200B2084300EE900AF8EEE00AA1
:1034C00020EE800A85ED020AFFF71EFF08226946FA
:1034D000002000F061F8FFF70FFF9DF800000F28B3
:1034E00030D19DF803009DF80210000200B208439D
:1034F00000EE100AD7ED010AB8EEC00A20EE200A4D
:1035000084ED000A9DF805009DF80410000200B249
:10351000084300EE100AF8EEC00A97ED010A60EECB
:10352000800AC4ED010A9DF807009DF8061000020C
:1035300000B2084300EE900AF8EEE00A20EE800A9E
:1035400084ED020AFFF7CEFEA22000F043F802222B
:103550006946222000F020F8FFF7BCFE9DF800002D
:103560009DF80110C00040EA5110B0F5806F02DBF9
:10357000A0F5006000B200EE100AB4EE001AF8EEFA
:10358000C00AB3EE070A00EE810A86ED000ABDE824
:10359000FC8100001003002070B50D46144640F079
:1035A000800000F017F806E0552000F013F805F849
:1035B000010B641EE4B2002CF6D170BD10B50C46B0
:1035C00040F0800000F006F8552000F003F820706D
:1035D00010BD000001B582B04FF47A700090012355
:1035E00001AA02A9024804F04BFD9DF804000EBD9B
:1035F000B810002002784078D20042EA5010B0F5AE
:10360000806F02DBA0F5006000B200EE100AB4EE9D
:10361000001AF8EEC00AB3EE070A00EE810A81ED47
:10362000000A704710B50C46FFF7D4FF2046BDE8EE
:103630001040FFF7CFBFFEE7014802F096BA000046
:103640004C0F0020014802F090BA0000740F0020D7
:1036500008B5012300930F4B186000209860D860D4
:10366000082018610C480068826852010AD48268F8
:10367000120102D50220009004E08068C00001D54C
:10368000042000900A466B460249034802F0A6F85F
:1036900008BD0000AC2000204C0F00202DE9F047B1
:1036A00004462DED048B84B04FF00108CDF80C805A
:1036B000DFED4F8A4FF0000A10EE100A4D498842A4
:1036C00002D3BBEE028A09E010EE100A4A49884292
:1036D00002DBB3EE028A01E0B0EE408A10209FEDDB
:1036E000471ADFED470AB0EE680A0EF0DAFD05462C
:1036F0000C209FED441ADFED440AB0EE680A0EF08C
:10370000D0FD06460C209FED411AB0EE689AB0EE4F
:10371000680AF0EE490A0EF0C4FD07460C20B1EE2F
:10372000041AF0EE490AB0EE680A0EF0BAFD8146BE
:103730000C20B3EE021AFBEE020AB0EE480A0EF0BD
:10374000B0FD3349012C06D0022C07D0032C08D041
:10375000042C0BD108E081ED028A07E081ED038A99
:1037600004E081ED048A01E081ED058A290A8DF8E3
:1037700004108DF8055031098DF80610310141EA29
:1037800017218DF807108DF808704FEA19118DF880
:1037900009104FEA091141EA10218DF80A108DF83D
:1037A0000B001C480460C0F808A0C0F80CA0082159
:1037B0000161194800688168490102D5CDF80C8083
:1037C0000AE08168090102D50220039004E08068C4
:1037D000C00001D50420039003AB01AA0D490E4897
:1037E00001F0FCFF04B0BDEC048BBDE8F0870000E5
:1037F00000000000000090C1000090410000BF42A6
:103800000000BFC200003442000034C20000FA438E
:103810009C010020AC2000204C0F00200FB581B08F
:1038200014484FF42071016000218160C1600821BB
:10383000016111489DF8041001709DF80510417058
:103840009DF8081081709DF80910C1709DF80C104A
:1038500001719DF80D1041719DF8101081719DF856
:103860001110C17102466B460249044801F0B6FFCF
:1038700005B000BDAC200020BC010020740F00206A
:1038800038B50E4C40F2FF1525600025A560E560B7
:10389000082525610A4C050A25706070080AA07089
:1038A000E170100A20716271180AA071E3716B4611
:1038B00022460249034801F091FF38BD94200020C0
:1038C000B4010020740F00202DE9F04704462DEDCF
:1038D000028B0126A0780025032835D1206C13F037
:1038E000D9FC41EC100B0BF017F99FED651B51EC67
:1038F000100B53EC112B13F06EF801D8A67423E0D3
:10390000D4F84C0113F0C6FC41EC100B0BF004F999
:103910009FED5D1B51EC100B53EC112B12F080FE50
:1039200012D2206C13F0B6FC41EC100B0BF0F4F843
:103930009FED571B51EC100B53EC112B12F070FE46
:1039400002D2A07C00B1A574204609F0D5FBA17B72
:10395000514F012901D1607B20B1207C012805D184
:10396000E07B18B99FED4D0A87ED0E0A97ED0E0A20
:10397000B5EEC00AF1EE10FA08DDF7EE000A30EEFF
:10398000600A87ED0E0A6573E57333E0207A042838
:1039900017D0434AD4F8EC01424BDFF80CC1DFF8F2
:1039A0000C81DFF80C91904203DCD4F89CA09A457E
:1039B00005DCD4F89CA0E24506DB404504DC6673D8
:1039C00005E0E573657315E0484500DD6573D4F8DF
:1039D000F001904203DCD4F8A4209A4205DCD4F82C
:1039E000A420624503DD404501DCE67302E0484562
:1039F00000DDE573A07C012808D109B1217C29B93B
:103A0000617B012939D0E17B012936D0012800D022
:103A10006574607C08B1E5736573B86913F03AFCAE
:103A200041EC180BD4F84C0113F034FC41EC100BB2
:103A30000BF072F853EC182B51EC100B12F0CBFF7B
:103A400013D2F86913F026FC41EC180B206D13F02B
:103A500021FC41EC100B0BF05FF853EC182B51ECF0
:103A6000100B12F0B8FF00D2E675607BA073E07B0C
:103A70002074BDEC028BBDE8F0876674C9E70000D6
:103A8000000000000000D03F000000000000E03F08
:103A9000000000A09999B93F3C0000200000E143DC
:103AA00000002041B81E053EC3F5A83E0000A0411D
:103AB000000070412DE9F04104462DED0A8B20787D
:103AC0009FEDFE9A012823D0204606F027FCE17BDB
:103AD000FB4E01292CD0607B012829D0A07A38B375
:103AE000D6ED080A94ED110A06F17800B1EE601ADD
:103AF000B4EEC10AF1EE10FA1FD2D4ED200A30EE76
:103B0000C00AD0ED000A20EE200A86ED120A26E057
:103B100084ED6D9A84ED6E9A84ED5E9A84ED5F9AE1
:103B200084ED609A84ED619ABDEC0A8BBDE8F0816A
:103B300084ED679A84ED669A41E0B4EEE00AF1EE16
:103B400010FA0ADDD4ED200A30EEC00AD0ED000AEA
:103B500020EE200A86ED120A01E086ED129AD6EDDB
:103B6000090A94ED160AB1EE601AB4EEC10AF1EE3C
:103B700010FA08D2D0ED010AB1EE400A20EE800A18
:103B800086ED130A0FE0B4EEE00AF1EE10FA08DD5C
:103B9000D0ED010AB1EE400A20EE800A86ED130A4C
:103BA00001E086ED139A96ED120AD6ED130A30EE77
:103BB000200A84ED670AB1EE400A84ED660A207A95
:103BC00004287DD00528FCD0BD4F2079703702280D
:103BD00077D004F58E6004F597689FEDBA8A04F5F6
:103BE000806501296ED0617B0129FBD0A178042971
:103BF00069D0D4ED250A94ED270A07F09FFB95EDD7
:103C0000240A30EE080A84ED6D0AD4ED260A94EDFC
:103C1000290A404607F092FB95ED360A30EE080A75
:103C200084ED6E0A207AA84D05287CD020790628DC
:103C30007AD0A07A002878D0A0780428FBD094ED20
:103C40003A0AD4ED380AD4ED151A30EE600AD5EDF3
:103C5000180A20EE201A95ED190AD4ED400A00EE5C
:103C6000201A94ED1F0AD4ED100A30EE600AD5ED4B
:103C70001C0A00EEC01AD4ED220A70EEE10AD5ED5E
:103C80001D1A01EEE01A84ED5E1A94ED501AD4ED7F
:103C90004F1A31EE612A95ED141AD4ED531A62EEE3
:103CA000013A94ED541A71EE612A95ED151AD4ED8E
:103CB0000F1A41EE223A94ED1E1A31EE613A03E0FA
:103CC0000EE134E154E19BE195ED161AD4ED141A9E
:103CD000D5ED174A41EE033A94ED211A31EE614ACF
:103CE00044EE843AC4ED603AD4ED3E3A94ED3C4A59
:103CF000D4ED414A73EEC43A95ED244A63EE843A1A
:103D000095ED254A44EE243A95ED264A44EE403A94
:103D100095ED270A50EE203AC4ED5F3A95ED1E0A64
:103D200022EE000A02E08CE1B6E1BEE1D5ED1F0A09
:103D300000EEA20AD5ED200A00EE830A71EEC10A58
:103D400095ED211A11EE200A84ED610A20799FED8C
:103D50005F8B06287DD0F03495ED050AD4ED040A7A
:103D600014ED041A54ED1ABAF1EE600A14ED27CAE4
:103D700020EE200A54ED020A70EEC10A95ED041AF5
:103D800001EE600A54ED1D0A14ED2C1A30EEC1BA92
:103D9000D5ED080A95ED091A00EECB0A7BEECC0AA8
:103DA00001EE200A10EE100A13F074FA53EC182BEF
:103DB00012F072FC11F00CFF206794ED140AD4EDA0
:103DC000130A94ED171A30EE609A95ED000AD4EDBF
:103DD000180AB1EE400A70EEC19A29EE000AD5ED3C
:103DE000010A14ED2D1A00EEE90A54ED1E0A30EE18
:103DF000C1AAD5ED020A14ED281A00EECA0A54ED44
:103E00001B0A70EEC1AAD5ED030A00EEEA0A10EE15
:103E1000100A13F03FFA53EC182B12F03DFC11F08E
:103E2000D7FEA067D4ED050A95ED110A94ED001AAE
:103E3000F1EE600A20EE200AD4ED020A70EEC10A0B
:103E400095ED101A01EE600AD5ED120A00EECB0ACC
:103E500000E033E17CEE6B0A95ED131A11EE200AB7
:103E600010EE100A13F016FA53EC182B12F014FC93
:103E700011F0AEFE606795ED0A0AD5ED0B0AB1EEC2
:103E8000400A29EE000A00EEE90AD5ED0C0A00EE20
:103E9000CA0AD5ED0D0A10EEAA0A10EE100A13F0A8
:103EA000F9F953EC182B12F0F7FB11F091FEE067D3
:103EB000F03C204605F010FEE07B0BE00000000027
:103EC0003C00002000004842C8370020D1915CFE31
:103ED000434A534001287CD0607B0128FBD033E16A
:103EE00094ED250AD4ED270AB44894ED2F1A30EE4C
:103EF000600AD0ED000A20EE200AD0ED010A00EEA3
:103F0000C10A84ED6D0A94ED260AD4ED290A083021
:103F100094ED301A30EE600AD0ED000A20EE200A4F
:103F2000D0ED010A00EEC10A84ED6E0A7AE6D4ED06
:103F3000250A94ED270AD4ED2F1A70EEC00A97EDEA
:103F4000000A20EE801AD7ED010A00EEE11A84ED96
:103F50006D1A94ED261AD4ED291A31EE611A21EE6C
:103F6000000A94ED301A00EEC10A84ED6E0A59E69B
:103F7000617B01291CD0D4ED250A94ED270A07F0B6
:103F8000DDF995ED240A30EE080A84ED6D0AE07B38
:103F9000012822D0D4ED260A94ED290A404607F0E4
:103FA000CDF995ED360A30EE080A84ED6E0A39E651
:103FB00094ED250AD4ED270A94ED2F1A30EE600A0D
:103FC000D7ED000A20EE200AD7ED010A00EEC10A63
:103FD00000E0B6E084ED6D0AD9E794ED260AD4ED51
:103FE000290A94ED301A30EE600AD7ED000A20EE6F
:103FF000200AD7ED010A00EEC10A84ED6E0A11E62F
:1040000094ED250AD4ED270AD4ED2F1A30EE600A7C
:10401000D7ED000A20EE201A97ED010A00EE611A92
:1040200084ED6D1A94ED261AD4ED291A31EE611A39
:1040300061EE200A94ED301A40EE410AC4ED6E0A9A
:10404000F0E594ED3A0AD4ED3B0A94ED401A30EED7
:10405000600AD5ED180A20EE200AD5ED190A00EE07
:10406000810A84ED5E0AD4ED410A95ED250A94EDAE
:104070003F1AF1EE600A20EE200AD4ED3E0A70EEFF
:10408000C10A95ED241A01EE600A84ED5F0A84ED01
:10409000609A84ED619A59E684ED619A84ED5F9AA5
:1040A00084ED609A84ED5E9A50E684ED619A84ED29
:1040B0005F9A84ED609A84ED5E9A47E684ED589AA3
:1040C00084ED599A94ED500AD4ED530AD6ED019A35
:1040D00094ED0F1A30EE609AD4ED540AB1EE690AED
:1040E000D6ED02AA29EE000A30EEC1AA94ED14BA68
:1040F000D6ED03BA0AEECA0A0BEE8B0ABDEEC00A71
:1041000010EE100A12F054FA53EC182B12F0C4FA05
:1041100011F05EFDC4F868012AEE2A0A09EEC90A08
:104120001BEE8B0ABDEEC00A10EE100A12F040FA28
:1041300053EC182B12F0B0FA11F04AFDC4F86C01E0
:10414000B7E620460EF032FB1D4AD4F868019FED19
:104150001D0A1D49DFED1D0A904202DD84ED5A0A59
:1041600003E0884201D9C4ED5A0AD4F86C019042A8
:1041700002DD84ED5B0A03E0884201D9C4ED5B0AED
:10418000134AD4F880011349B3EE040AFBEE040A83
:10419000904202DD84ED600A03E0884201D9C4ED5B
:1041A000600AD4F88401904202DD84ED610ABBE428
:1041B0008842FCD9C4ED610AB6E400009C000020EE
:1041C00000204B4600204B4600204BC600204BC62B
:1041D0000000A0410000A0C170B504462DED0A8B7F
:1041E00001212046D4ED380A94ED270A0EF06EF92D
:1041F00084ED890AD4ED380A94ED270A032120467C
:104200000EF064F984ED8A0AD4ED380A94ED270A99
:10421000022120460EF05AF984ED8B0AD4ED380ABB
:1042200094ED270A042120460EF050F984ED8C0A03
:10423000D4ED3C0A94ED290A012120460EF046F9FE
:1042400084ED8D0AD4ED3C0A94ED290A0321204621
:104250000EF03CF984ED8E0AD4ED3C0A94ED290A67
:10426000022120460EF032F984ED8F0AD4ED3C0A8B
:1042700094ED290A042120460EF028F984ED900AD5
:10428000D4ED580A94ED5A1A70EE810AC4ED5C0A16
:1042900094ED591AD4ED5B1A31EE211A84ED5D1AB2
:1042A00004F58065C5EDBE0A85EDCA1A10EE900AC8
:1042B000F64ADFEDF71AF7499FEDF72A904202DD43
:1042C000C5EDBE1A05E010EE900A884201D985EDD1
:1042D000BE2A11EE100A904202DDC5EDCA1A05E0B1
:1042E00011EE100A884201D985EDCA2AD4ED5E0A82
:1042F00094ED601A70EE812AC4ED642AD4ED5F0A51
:1043000094ED611A70EE811AC4ED651AD4ED6D0A50
:1043100094ED661A30EE812A84ED712AD4ED6E0A8E
:1043200094ED671A30EE811A84ED721AD4ED8B0A7F
:10433000F1EE600A62EEA00AC4ED6A0A94ED8C3ACE
:1043400022EE833A84ED6B3AD4ED8F2AF1EE622AA5
:1043500061EEA23AC4ED683A21EE804A84ED694AE2
:1043600094ED890A62EE001AC4ED771A94ED8A0A78
:10437000B1EE400A22EE002A84ED782A94ED8D0AEF
:10438000B1EE400A61EE002AC4ED752A94ED8E0A62
:1043900021EE001A84ED761A9FEDC00ADFEDC04AC7
:1043A000F4EEC00AF1EE10FA02DD84ED6A0A06E0CE
:1043B000F4EEE40AF1EE10FA01D2C4ED6A4AB4EE6A
:1043C000C03AF1EE10FA02DD84ED6B0A06E0B4EEBD
:1043D000E43AF1EE10FA01D2C4ED6B4AF4EEC03AC1
:1043E000F1EE10FA02DD84ED680A06E0F4EEE43A3C
:1043F000F1EE10FA01D2C4ED684AB4EEC04AF1EE13
:1044000010FA02DD84ED690A06E0B4EEE44AF1EE4A
:1044100010FA01D2C4ED694A11EE902AA149A248CE
:10442000B3EE0E0AFBEE0E0A8A4202DD84ED770A35
:1044300005E011EE902A824201D9C4ED770A12EE0E
:10444000102A8A4202DD84ED780A05E012EE102A75
:10445000824201D9C4ED780A12EE902A8A4202DD26
:1044600084ED750A05E012EE902A824201D9C4ED6E
:10447000750A11EE102A9FED8DAB9FED8EBBF9EE04
:1044800004CA9FED8E9BB1EE04CA9FED8E8ADFEDCC
:104490008E8A8A4202DD84ED760A05E011EE101A5A
:1044A000814201D9C4ED760A94ED6A0AD4ED770A07
:1044B00030EE200A85ED930A94ED6B0AD4ED780A6C
:1044C00030EE200A85ED9D0A94ED680AD4ED750A58
:1044D00030EE200A85EDA70A94ED690AD4ED760A3C
:1044E00030EE200A85EDB10AD4F83406406812F0A7
:1044F000D1FE41EC100B0AF00FFB53EC1A2B51ECE0
:10450000100B12F068FA04D885ED95CA85ED968AED
:104510001AE0D4F83406406812F0BCFE41EC100BEF
:104520000AF0FAFA9FED691B51EC100B53EC112BBA
:1045300012F076F804D8C5ED958AC5ED96CA03E069
:10454000C5ED958A85ED968AD4F88406406812F008
:10455000A1FE41EC100B0AF0DFFA53EC1B2B51ECDF
:10456000100B12F05DF804D8C5EDA98A85EDAA8A72
:1045700018E0D4F88406406812F08CFE41EC100B71
:104580000AF0CAFA53EC192B51EC100B12F023FA73
:1045900004D885EDA9CA85EDAA8A03E0C5EDA98AEC
:1045A00085EDAA8AD4F85C06406812F073FE41ECEF
:1045B000100B0AF0B1FA53EC1B2B51EC100B12F05C
:1045C0002FF804D8C5ED9F8AC5EDA0CA18E0D4F82D
:1045D0005C06406812F05EFE41EC100B0AF09CFA9B
:1045E00053EC192B51EC100B12F0F5F904D885EDB2
:1045F0009FCA85EDA08A03E0C5ED9F8A85EDA08A5C
:10460000D4F8AC06406812F045FE41EC100B0AF0FD
:1046100083FA53EC1A2B51EC100B12F0DCF904D88E
:1046200085EDB3CA85EDB48A18E0D4F8AC064068CD
:1046300012F030FE41EC100B0AF06EFA53EC192B1D
:1046400051EC100B12F0C7F904D8C5EDB38AC5EDD3
:10465000B4CA03E0C5EDB38A85EDB48A1D4AD5F826
:104660004C029FED1D0A1D49DFED1D0A904202D943
:1046700085ED930A03E0884201DDC5ED930AD5F884
:10468000740290422ED985ED9D0A2FE000FC7F46F2
:1046900000FC7F4600FC7FC600FC7FC60000FA4499
:1046A0000000FAC40000F0410000F0C1000000006A
:1046B00000003E400000000000003EC0000000007E
:1046C00000005140000048C30000484300000000C3
:1046D000000051C00000C8C30000C8C30000C843A8
:1046E0000000C843884201DDC5ED9D0AD5F89C0253
:1046F000904202D985EDA70A03E0884201DDC5EDAD
:10470000A70AD5F8C402904204D985EDB10ABDECE0
:104710000A8B70BD8842FADDC5EDB10AF7E70000EB
:10472000002803D0024901204870704700207047DC
:104730003C00002010B5124A506800011FD5114BF3
:10474000114C4FF00061586B0068A04203D90E482D
:104750004C3801600EE00A4CB834A04203D90A4834
:104760005038016006E0064C5834A04201D9D160AF
:1047700000E091601868016841F40071016010BDAB
:1047800000600240F00F002058640240014801F030
:10479000F5BE0000181500202DE9F05FFA48FB4A2D
:1047A000FA4DC06CFA4EF94F0068DFF8E4C3DFF849
:1047B000DC83DFF8DC93DFF8D4A3DFF8D4B3DFF8D1
:1047C000CCE3F34C483D60361837D1140CF1180C8B
:1047D000A8F1300809F178090AF1300A0BF1300B21
:1047E000AEF1180E90423ED9E84A543A1368A042FE
:1047F00001D1202235E0A84201D1202231E0B0428F
:1048000001D120222DE0B84201D1202229E06045CB
:1048100001D10A4625E0404501D10A4621E048453C
:1048200001D10A461DE0504501D10A4619E058451C
:1048300002D14FF4001214E0704502D14FF400127F
:104840000FE0D34A9032904202D14FF4001208E0B8
:10485000CE4A4832904202D14FF4001201E04FF0AC
:1048600000621340C3E0CA4AA83290423ED9C74A08
:10487000583A1368A04201D1202235E0A84201D164
:10488000202231E0B04201D120222DE0B84201D1F6
:10489000202229E0604501D10A4625E0404501D1AA
:1048A0000A4621E0484501D10A461DE0504501D1A4
:1048B0000A4619E0584502D14FF4001214E0704541
:1048C00002D14FF400120FE0B14A9032904202D16F
:1048D0004FF4001208E0AD4A4832904202D14FF442
:1048E000001201E04FF00062134080E0A84A483215
:1048F00090423ED9A64A103A5368A04201D12022E4
:1049000035E0A84201D1202231E0B04201D120227D
:104910002DE0B84201D1202229E0604501D10A46AC
:1049200025E0404501D10A4621E0484501D10A462B
:104930001DE0504501D10A4619E0584502D14FF417
:10494000001214E0704502D14FF400120FE0904ABB
:104950009032904202D14FF4001208E08B4A483264
:10496000904202D14FF4001201E04FF00062134078
:104970003DE0874A103A1368A04201D1202235E079
:10498000A84201D1202231E0B04201D120222DE005
:10499000B84201D1202229E0604501D10A4625E034
:1049A000404501D10A4621E0484501D10A461DE0B3
:1049B000504501D10A4619E0584502D14FF4001282
:1049C00014E0704502D14FF400120FE0704A9032AB
:1049D000904202D14FF4001208E06C4A48329042F3
:1049E00002D14FF4001201E04FF000621340002B9F
:1049F00072D0664A904235D9A04201D120212DE0E3
:104A0000A84201D1202129E0B04201D1202125E096
:104A1000B84201D1202121E060451FD040451DD082
:104A200048451BD0504519D0584502D14FF40011CC
:104A300014E0704502D14FF400110FE05449903159
:104A4000884202D14FF4001108E0504948318842B1
:104A500002D14FF4001101E04FF000614B484C3897
:104A60000160ADE04A4AA832904236D9A04201D155
:104A700020212DE0A84201D1202129E0B04201D11E
:104A8000202125E0B84201D1202121E060451FD03E
:104A900040451DD048451BD0504519D0584502D13E
:104AA0004FF4001114E0704502D14FF400110FE0F3
:104AB00037499031884202D14FF4001108E0334960
:104AC0004831884202D14FF4001101E04FF00061FB
:104AD0002E485038016073E0B6E02D4A48329042CB
:104AE00035D9A04201D120212DE0A84201D12021B9
:104AF00029E0B04201D1202125E0B84201D1202196
:104B000021E060451FD040451DD048451BD0504591
:104B100019D0584502D14FF4001114E0704502D16C
:104B20004FF400110FE01A499031884202D14FF43E
:104B3000001108E015494831884202D14FF40011B4
:104B400001E04FF0006112481038C16038E0A04227
:104B500001D1202131E0A84201D120212DE0B04235
:104B600001D1202129E0B84201D1202125E0604572
:104B700023D0404521D048451FD050451DD0584531
:104B800008D14FF4001118E0B8100020586402401A
:104B900010600240704502D14FF400110DE02B4926
:104BA000884202D14FF4001107E02949884202D11E
:104BB0004FF4001101E04FF000612448A0388160FB
:104BC000244C207880070CD5207820F0020020703B
:104BD000207840F004002070012211461E4801F0A8
:104BE000A7FF60781D4D80070CD5607820F002008B
:104BF0006070607840F00400607001221021284647
:104C000001F096FFA07880070CD5A07820F0020074
:104C1000A070A07840F00400A07001221021284666
:104C200001F086FF0DF076FE207840070CD5207845
:104C300020F004002070207840F008002070084820
:104C4000016841F001010160BDE8F09FA0600240F1
:104C5000A0640240C00000200004024000000240A6
:104C6000103C0140014801F089BC0000781500208B
:104C7000014801F083BC00005814002001680A4B71
:104C8000CAB2103AA3FB02321209084B9B5CC365FF
:104C9000032A04D96FF30901091D816502E06FF34E
:104CA00009018165806D7047ABAAAAAA52840108E8
:104CB000014600208A6A8B69002B0FD0B3F5005F94
:104CC0001DD08AB3012A30D0022A2ED0032A04D163
:104CD000C96A11F0807F00D0012070471AB1012A03
:104CE00007D0022AF9D1C96A11F0807FF5D00120DE
:104CF0007047C96AB1F1C07FFAD1012070475AB13B
:104D0000012A0BD0022A07D0032AF7D1C96AB1F1D0
:104D1000C07FF3D10120704701207047C96A11F0AC
:104D2000807FFAD001207047FFE70120704770476D
:104D3000012001F0DBBD082001F0D8BD102001F0FA
:104D4000D5BD202001F0D2BD704700002DE9F04113
:104D50002DED048B00285BD001231A4602212E483A
:104D600004F008FF2C4900259C3101F88D5C2B4C88
:104D7000C86D04F11802CCCACCC0486ED4E90C3717
:104D8000D4E90A62C0E90237C0E9006204F13802DE
:104D9000886FCCCACCC0086FD4E902230CC0C86F9E
:104DA00022680260C86E9FED1E9A80ED009AC86E60
:104DB000B7EE008A80ED018ADFED1A8AC1ED268AFE
:104DC00001231A460221184804F0D4FE16499C31EA
:104DD00001F88D5C04F11802C86D6CCA6CC004F156
:104DE0002802486E6CCA6CC004F13802886F6CCA25
:104DF0006CC0086FD4E902230CC0C86F226802603F
:104E0000C86E80ED009AC86E80ED018AC1ED268AD9
:104E1000BDEC048BBDE8F081D02E0020980200206C
:104E20006F12033B000000000830002070B50446FC
:104E30002DED028B002C3BD0254E21789FED258A4D
:104E4000706804F58065012935D095EDBC0A80EDC8
:104E5000000A94ED1B0AB068B1EE400A80ED000A2A
:104E60001B4805F06DF918B190ED000A86ED4D0A6A
:104E700096ED4D0A85EDBD0A2078174E012820D009
:104E8000706895EDC80A80ED000A94ED1B0AB068C1
:104E9000B1EE400A80ED000A0F4805F051F918B153
:104EA00090ED000A86ED4D0A96ED4D0A85EDC90A92
:104EB000BDEC028B70BD80ED008AB06880ED008A89
:104EC000CEE7706880ED008AB06880ED008AE3E785
:104ED000D02E002000000000083000202DE9F34112
:104EE00004462DED040B0F462DED108BF0EE60FA0D
:104EF000DFEDFE0A70EE201A9FEDFD0A61EE801ACA
:104F0000C1EEA08A30EEC11A21EE000A80EE208A9E
:104F100018EE900A12F0BEF941EC100B09F0F0FC0B
:104F200051EC100B10F054FE0CEE900A18EE900AA3
:104F300012F0B0F941EC100B09F0FAFD51EC100B36
:104F400010F046FE0DEE900A18EE100A12F0A2F9CB
:104F500041EC100B09F0D4FC51EC100B10F038FEB2
:104F60000DEE100A18EE100A12F094F941EC100B35
:104F700009F0DEFD51EC100B10F02AFE0EEE900A47
:104F80009FEDDCBA9FEDDCEA0CEE8BEADFEDDBBADD
:104F90004DEE4BBA2DEE8BCA2EEE8BFA3BEECE0ABF
:104FA0007FEE4C0A20EE001A00EEA01ADFEDD41AB4
:104FB00060EE219A20EEA1AA9FEDD20A71EE000ABE
:104FC00030EEC09A39EE890A10EE100A12F062F93A
:104FD00029EEA90A41EC180B0AEE0A0A09EE490A61
:104FE00010EE100A12F056F941EC100B09F0CCFE4D
:104FF000B0EE409AF0EE609A1AEE100A12F04AF9FA
:1050000053EC192B10F046FF53EC182B11F074F8E9
:1050100041EC100B09F0E8F89FEDBB1B51EC100BB5
:1050200053EC112B11F038FB10F0D2FD08EE100AF2
:1050300018EE100A12F02EF941EC100B09F060FC8A
:105040009FEDB39B51EC100B53EC192B11F024FB8B
:1050500041EC1A0B1EEE100A12F01CF953EC1A2B3D
:1050600010F018FF10F0B4FD08EE900A18EE100AC8
:1050700012F010F941EC100B09F05AFD53EC192B0A
:1050800051EC100B11F008FB41EC1A0B1CEE100A4E
:1050900012F000F953EC1A2B10F0FCFE10F098FD02
:1050A0000CEE100A28EEA80A0CEE0C0A10EE100AFC
:1050B00012F0F0F841EC100B09F066FE51EC100B09
:1050C00010F086FD05461CEE100A12F0E3F841ECE4
:1050D0001A0B18EE900A12F0DDF841EC100BB0EE4E
:1050E0004A1AF0EE6A1A09F0EBF951EC100B10F0C5
:1050F0006FFD0AEE100A9FED880A6FEE800A60EEDF
:10510000ADAA6FEE8B0A60EEACCADDED130A20EE9D
:10511000800A20EE2EEA9DED130A20EE0B0A20EE07
:105120000DDA7CEE4F0A38EEEB1A80EE810A10EEB3
:10513000100A12F0AFF841EC100B09F055F851ECE1
:10514000100B10F045FD0CEE100A7CEE488A18EEAC
:10515000900A12F09FF841EC100B09F0E9FC53ECB7
:10516000192B51EC100B11F097FA41EC190B1CEEB6
:10517000100A12F08FF841EC100B09F0D9FCB0EED8
:1051800040BA3DEE6C0AF0EE60BA10EE100A12F072
:1051900081F853EC1B2B11F07FFA41EC1B0B1CEE3A
:1051A000100A12F077F841EC100B09F0A9FBB0EEF1
:1051B00040DA3EEE6A0AF0EE60DA10EE100A12F003
:1051C00069F853EC1D2B11F067FA53EC1B2B10F010
:1051D00061FE53EC192B10F08FFF10F0F9FC0BEE71
:1051E000100A18EE900A12F055F841EC100B09F075
:1051F0009FFC18EE100A12F04DF841EC100B09F06C
:1052000097FC18EE100A12F045F841EC100B09F06B
:1052100077FB18EE100A12F03DF841EC100B09F084
:1052200087FCB0EE409A9FED3D0AF0EE609A2BEEBF
:1052300000BA1BEE100A12F02DF853EC192B11F0E6
:105240002BFA41EC190B1AEE900A12F023F853ECEA
:10525000192B11F01DFD10F0BBFC064618EE100ACC
:1052600012F018F841EC100B09F04AFBB0EE408A3E
:10527000F0EE608A1BEE100A12F00CF853EC182BBB
:1052800011F00AFA41EC180B1CEE900A12F002F829
:1052900053EC182B10F0FEFD10F09AFC11F0FAFF01
:1052A00041EC180B1AEE100A11F0F4FF41EC100B50
:1052B00009F026FB53EC182B51EC100B11F0ECF914
:1052C00041EC190B304611F0E5FF41EC180B1AEEDA
:1052D000100A11F0DFFF41EC100B09F01DFC09F082
:1052E00027FC51EC100B10F067FC19E00000344370
:1052F000DB0F49409A99193E9A9999BD9A99993D1F
:10530000713D0A3F994C953D0000000000000040AF
:1053100000000020AE47D13F9A9919BE713D8A3EE8
:1053200053EC182B11F0B8F953EC192B11F0B0FC19
:105330009FED101B53EC112B11F0AEF910F048FC4F
:1053400000EE100A57B1C4F89C5084ED38AA84EDE1
:10535000400ABDEC108B06B0BDE8F081C4F8A45043
:10536000F1EE4A0AC4ED3C0AB1EE400A84ED410A6E
:10537000EFE70000000000000000084038B44FF0E4
:10538000000CCDF800C090F83C20012A1BD001226F
:1053900080F83C200A680724092A17D90368DD68C9
:1053A0000A3A02EB420204FA02F225EA0202DA6049
:1053B0000A788B680A3A02EB420293400268D4688A
:1053C0002343D36014E038BC0220704703681D6992
:1053D00002EB420204FA02F225EA02021A610A789A
:1053E0008B6802EB42029340026814692343136105
:1053F0004A681F24072A15D203685D6B521E02EB10
:10540000820204FA02F225EA02025A630A8893B27F
:105410000A79521E02EB820293400268546B2343C6
:1054200053632CE00D2A15D203681D6BD21F02EBCB
:10543000820204FA02F225EA02021A630A8893B28F
:105440000A79D21F02EB820293400268146B234355
:10545000136314E00368DD6A0D3A02EB820204FA7A
:1054600002F225EA0202DA620A8893B20A790D3A58
:1054700002EB820293400268D46A2343D362184A43
:10548000184B04689C4206D10C68122C03D1546856
:1054900044F48004546004689C421CD10B68102BB7
:1054A00001D0112B17D1536843F4000353600968EE
:1054B000102910D10C490D4A0968B1FBF2F101EB3A
:1054C000810149000091009929B10099491E00917C
:1054D00000990029F9D180F83CC038BC0020704701
:1054E00000230140002001402407002040420F001B
:1054F0000068C06C704770B504460025002C03D0CE
:10550000206C002610B107E0012070BD204600F09D
:105510001DF8666484F83C60206C10F0100F04D015
:10552000012584F83C60284670BD206C20F488502A
:1055300040F0020020642046FDF716FC6664206CF3
:1055400020F0020040F001002064EAE710B586B0C8
:105550000446142101A8FBF76BFE174B20680022BC
:105560001649984209D1086840F4807008600868BC
:1055700000F48070009006B010BD114B9842FAD133
:10558000086840F480600860086800F4806000905B
:105590000A481438016841F020010160006800F0F9
:1055A000200000901815019003200290039201A999
:1055B000044801F0A7F9DEE700200140443802402A
:1055C00000220140001402402DE9F04104460D463E
:1055D000206881684FF0000711F4806F0CD080685C
:1055E00010F4807F08D0206C40F02000206484F804
:1055F0003C700120BDE8F08101F0A2FA0646206867
:10560000006810F0020F12D1B5F1FF3F0AD025B1AA
:1056100001F096FA801BA84204D92068006810F0B7
:10562000020F12D02068006810F0020FECD0216841
:105630006FF012000860206C40F400702064206855
:10564000816811F0405F09D01EE0206C40F004003A
:10565000206484F83C700320BDE8F081217E99B974
:10566000C16A11F4700F03D0806810F4806F0BD101
:10567000206C20F480702064206C10F4805F03D1D3
:10568000206C40F0010020640020BDE8F0810000A3
:1056900081B00022009290F83C10012908D001212D
:1056A00080F83C1001688B6813F0010F03D016E0FE
:1056B000022001B070478B6843F001038B603949C9
:1056C000394B0968B1FBF3F101EB410100910099FD
:1056D00029B10099491E009100990029F9D101686A
:1056E0008B6813F0010F52D0036C23F0010323F4F5
:1056F000C06343F4807303644B6813F4806F05D078
:10570000036C23F4005343F480530364036C13F4D9
:10571000805F04D0436C23F00603436400E04264DE
:1057200080F83C20214A6FF022030B60516811F091
:105730001F0F1F4907D00068884230D1816811F0DF
:10574000405F1FD02BE00068884212D0194A904277
:1057500004D1D1F8042312F01F0F0AD0A0F1804227
:10576000B2F591321BD1D1F8041301F01F011029B9
:1057700015D2816811F0405F11D1816841F08041FC
:1057800081600CE0816841F08041816007E0016C3C
:1057900041F010010164416C41F0010141640020BD
:1057A00001B070472407002040420F000023014051
:1057B000002001400021014090F82020012A07D05C
:1057C000022A05D0416A41F48021416201207047DC
:1057D00000684269114341610020704770B490F83D
:1057E0002040D0F800C0DCF808C0012C08D0022C02
:1057F00006D0416A41F48021416270BC01207047AB
:105800000CF080640CF000652C4302D11CF0805F2A
:1058100055D0CCF3016C012404FA0CF41C608B68A5
:105820004FF4C0749BB1CD6804EB0C162B434D684C
:1058300043EAC5030568AB514FF4C273066803EB36
:105840000C130D69F550097D012909D00DE00D8873
:10585000CB6804EB0C1643EA45530568AB51EBE704
:105860000168CD5845F48075CD501179D3795579BB
:1058700041EA036193791B0443EA052319434FF47A
:10588000C675036805EB0C1559511178D37841EAB8
:105890000361937852781B0443EA022211434FF4C8
:1058A000C473026803EB0C13D150016804EB0C10B5
:1058B0000A5842F001020A5070BC00207047416A49
:1058C00041F40011416270BC0120704790F8202023
:1058D000012A07D0022A05D0416A41F480214162A1
:1058E000012070474248D0F8002242F00102C0F87F
:1058F0000022D0F8002222F47C52C0F80022D0F816
:1059000000224B6A42EA0322C0F800220A7D0123EA
:1059100002F01F0203FA02F2D0F81C329343C0F8DF
:105920001C32CB69D3B9D0F80C329343C0F80C3297
:10593000B1F80CC04B686CF31F43D1F814C000EBF6
:10594000CC0CCCF84032B1F808C00B686CF31F43A4
:10595000D1F814C000EBCC0CCCF84432CB69012B4D
:105960001AD1D0F80C321343C0F80C32B1F800C091
:105970004B686CF31F43D1F814C000EBCC0CCCF88F
:105980004032B1F808C0CB686CF31F43D1F814C0A3
:1059900000EBCC0CCCF844328B697BB1D0F80432EC
:1059A0001343C0F804320B6973B1D0F814321343B7
:1059B000C0F81432096A01290CD010E0D0F8043282
:1059C0009343C0F80432EEE7D0F814329343C0F8A2
:1059D0001432EFE7D0F81C121143C0F81C12D0F8B3
:1059E000001221F00101C0F80012002070470000F1
:1059F00000640040704730B490F820C0BCF1010F43
:105A000009D0BCF1020F06D0416A41F48021416205
:105A100030BC0120704739B1D0F800C0DCF810C0AC
:105A20001CF0030F33D006E0D0F800C0DCF80CC047
:105A30001CF0030F24D04FF4D87C04680CEB011C3D
:105A400054F80C4004F0040494603CB3046854F827
:105A50000C40E4085460046854F80CC00CF0020CCC
:105A6000C2F80CC04FF4DA7C04680CEB011C54F84B
:105A70000C5005F00F05082D16D30824146118E00A
:105A8000416A41F40011416230BC01207047416A13
:105A900041F40011416230BC01207047046854F8A1
:105AA0000C40640D1460D6E754F80C4004F00F0469
:105AB0001461046854F80C40C4F30724946104682A
:105AC00054F80CC04FEA1C4CC2F814C04FF4DC72FE
:105AD000D0F800C002EB01125CF802C083F800C0ED
